:020000040800F2
:10000000A03900202D020008FF1E0008ED12000894
:10001000FB1E00085D0D0008B54700080000000049
:10002000000000000000000000000000733A00081B
:10003000210F000800000000AF020008853B000807
:10004000470200084702000847020008470200086C
:100050004702000847020008230F00084702000873
:10006000470200084702000847020008470200084C
:10007000470200084702000847020008470200083C
:10008000470200084702000847020008470200082C
:10009000470200084702000847020008270F00082F
:1000A0000D3C0008613C0008513C0008113C000870
:1000B00047020008653C0008A53C0008470200080C
:1000C00047020008470200084702000847020008EC
:1000D0004702000861440008414500084345000804
:1000E000250F0008470200084702000847020008E1
:1000F00047020008470200084702000847020008BC
:1001000047020008470200084702000847020008AB
:10011000470200084702000847020008470200089B
:10012000470200084702000847020008470200088B
:1001300000F002F800F05CF80AA090E8000C82449D
:100140008344AAF10107DA4501D100F051F8AFF27A
:10015000090EBAE80F0013F0010F18BFFB1A43F0A5
:100160000103184734550000545500000A444FF06D
:10017000000C10F8013B13F0070408BF10F8014B06
:100180001D1108BF10F8015B641E05D010F8016B4B
:10019000641E01F8016BF9D113F0080F1EBF10F8AF
:1001A000014BAD1C0C1B09D16D1E58BF01F801CBD2
:1001B000FAD505E014F8016B01F8016B6D1EF9D555
:1001C0009142D6D37047000000230024002500266A
:1001D000103A28BF78C1FBD8520728BF30C148BFAA
:1001E0000B6070471FB5AFF300801FBD10B510BD89
:1001F00000F096F91146FFF7F5FF04F0FDFC00F062
:10020000B4F9FFF7F3FF00F0B7F90000EFF309804E
:10021000704780F309887047EFF30880704780F3D8
:100220000888704740BA7047C0BA7047094880478D
:1002300009480047FEE7FEE7FEE7FEE7FEE7FEE7C8
:10024000FEE7FEE7FEE7FEE704480549054A064BE0
:1002500070470000AD3B000831010008A0330020CA
:10026000A0390020A0350020A0350020EFF3108039
:1002700072B6704780F3108870471D484FF0FF0139
:100280000170002080F309881A48012101701A4882
:100290004FF08051016062B6FEE717484FF0805181
:1002A0000160704714484FF080510160704772B68A
:1002B000EFF3098028B1203880E8F00F0F49096872
:1002C000086000B50E4880475DF804EB0D480E4904
:1002D0000A78027009480D490A680260106890E8BF
:1002E000F00F203080F309884EF0040E62B670479C
:1002F00022ED00E05A01002004ED00E06001002042
:10030000792800084F0100205001002068010020DA
:1003100072B6704762B67047EFF3108072B67047DE
:1003200080F310887047B0FA80F0704790FAA0F020
:10033000704730BF704720BF704700220280428064
:100340008280704770B503460C46164631462046FB
:10035000FFF7F3FF002502E0002058556D1CB54261
:10036000FAD370BD30B504466088A588A84201D193
:10037000208878B960880B546088904203D26088E6
:10038000401C608001E0002060802088401C2080AC
:10039000012030BD0020FCE730B50446208800284D
:1003A00016DDA088085C1870A088904203D2A0884F
:1003B000401CA08001E00020A0802088401E2080FA
:1003C000A0886588A84201D100202080012030BD8E
:1003D0000020FCE740EA010310B59B070AD1042A7C
:1003E00008D310C808C9121F9C42F8D020BA19BA05
:1003F000401A10BD0AB9002010BDD30701D0521C0D
:1004000005E010F8013B11F8014B1B1B07D110F858
:10041000013B11F8014B1B1B01D1921EF1D1184673
:1004200010BD032A40F2318010F0030C00F015805B
:1004300011F8013BBCF1020F624498BF11F801CBE7
:1004400000F8013B38BF11F8013BA2F1040298BF4C
:1004500000F801CB38BF00F8013B11F0030300F0B6
:100460002680083AC0F0098051F8043B51F804CBCB
:1004700040F8043B40F804CBF3E7121D5CBF51F891
:10048000043B40F8043BAFF30080D20724BF11F8CF
:10049000013B11F801CB48BF11F8012B24BF00F834
:1004A000013B00F801CB48BF00F8012B704710B5A5
:1004B000203AC0F00B80B1E81850203AA0E818505C
:1004C000B1E81850A0E81850BFF4F5AF5FEA027C1D
:1004D00024BFB1E81850A0E8185044BF18C918C08C
:1004E000BDE810405FEA827C24BF51F8043B40F82D
:1004F000043B08BF7047D20728BF31F8023B48BF12
:1005000011F8012B28BF20F8023B48BF00F8012B4F
:100510007047704770477047004870473C33002071
:100520007546FFF7F9FFAE4605006946534620F0D1
:100530000700854618B020B5FFF786FEBDE82040CD
:100540004FF000064FF000074FF000084FF0000B8F
:1005500021F00701AC46ACE8C009ACE8C009ACE842
:10056000C009ACE8C0098D4670470446AFF300806F
:100570002046FFF746FE000003494FF01800ABBECF
:10058000704700000900000026000200704721B1FA
:10059000826842F00102826003E0826822F0010278
:1005A0008260704710B503F069F900F0BDFC424865
:1005B00000F0ECFB41484249086042484860002096
:1005C00088602420C86000200861802048614000C5
:1005D00088618000C8612020086200024862002013
:1005E0008862354800F07EFC0121334800F0C1FBF1
:1005F0000020354908600120087148714FF46020DF
:1006000088600020C860062008742C484C3800F030
:100610007DF807230122102128484C3800F09CF86F
:1006200007230222002125484C3800F095F80723C3
:100630000322012121484C3800F08EF807230422C0
:1006400002211E484C3800F087F8072305220321B9
:100650001A484C3800F080F8072306220421174876
:100660004C3800F079F8012114484C3800F02EF88D
:10067000012000F0E1F8012110484C38FFF787FF16
:100680000E484C3800F0C2F800BF0C484C3800F05F
:1006900032F80028F9D109484C3800F0C7F800BFFB
:1006A00006484C3800F01DF80028F9D10121034814
:1006B0004C3800F0B0F810BD080002404C24014056
:1006C000BC1F0020E81F0020A81F002021B1826865
:1006D00042F48072826003E0826822F48072826059
:1006E0007047014600208A6812F0040F01D00120F3
:1006F00000E000207047014600208A6812F0080FD1
:1007000001D0012000E000207047000030B5002239
:10071000002342680E4C22400D790C6844EA0524FF
:100720002243426082680B4C2240D1E902542C43A0
:100730004D7944EA450422438260C26A22F4700281
:100740000C7C641EE4B2234342EA0352C26230BD11
:10075000FFFEF0FFFDF7F1FFF0B5002400250929A9
:1007600011DDC468A1F10A0606EB4607072606FA62
:1007700007F5AC43A1F10A0606EB460603FA06F5B7
:100780002C43C4600CE0046901EB4107072606FA1C
:1007900007F5AC4301EB410603FA06F52C4304616F
:1007A000072A0FDA446B561E06EB86071F2606FA49
:1007B00007F5AC43561E06EB860601FA06F52C43F8
:1007C000446322E00D2A0FDA046BD61F06EB86077E
:1007D0001F2606FA07F5AC43D61F06EB860601FA7C
:1007E00006F52C43046310E0C46AA2F10D0606EB83
:1007F00086071F2606FA07F5AC43A2F10D0606EBA5
:10080000860601FA06F52C43C462F0BD816841F00A
:1008100008018160704721B1826842F4A0028260C1
:1008200003E0826822F4A00282607047816841F090
:10083000040181607047000038B10849096841F43B
:100840000001074AC2F8081406E00449096821F4C7
:100850000001034AC2F80814704700000824014050
:100860000020014010B5002216E00020002109E020
:1008700001EB41030A4C04EB830333F812301844B4
:100880004B1CD9B20629F3DB0623B0FBF3F3054C6E
:1008900024F81230531CDAB2062AE6DB10BD000041
:1008A000E81F00203020002010B50C889C4203DA9D
:1008B0000C88641C0C8001E000240C800C8820F85B
:1008C000142010BD00B587B09DF8180006900020D8
:1008D00001F0FAFC84490860002001F0F5FC83492E
:1008E0000860012001F0F0FC81490860012001F05E
:1008F000EBFC8049086003230022E8217E48CDE913
:100900000323CDE90101322300F5677200217B4802
:10091000009301F0FFFD0690032300225621784842
:10092000CDE90323CDE90101282300F5AA720021B6
:100930007448009301F0EEFD069003230022C421C9
:100940007148CDE90323CDE90101212300F543726C
:1009500000216E48009301F0DDFD06900323002284
:10096000C4216B48CDE90323CDE90101202300F523
:10097000437200216748009301F0CCFD06900323E9
:100980000022C4216448CDE90323CDE901012A23D3
:1009900000F5437200216148009301F0BBFD069011
:1009A0000323002278215E48CDE90323CDE901012C
:1009B0002D2300F5EE7200215A48009301F0AAFDA4
:1009C000069003230022BE215748CDE90323CDE939
:1009D00001012E2300F53D7200215448009301F0DF
:1009E00099FD06900323002264215148CDE9032399
:1009F000CDE90101352300F5C67200214D48009371
:100A000001F088FD06900323002252214A48CDE9D7
:100A10000323CDE90101342300F5A27200214748E8
:100A2000009301F077FD0690032300227A214448C9
:100A3000CDE90323CDE90101262300F5F27200215F
:100A40004048009301F066FD0690032300228C21AC
:100A50003D48CDE90323CDE90101272300F50B72C1
:100A600000213A48009301F055FD069006AA38A1EE
:100A7000382001F0BBFD06AA37A1282001F0B6FD01
:100A800006AA38A1202001F0B1FD06AA38A1212034
:100A900001F0ACFD06AA38A1322001F0A7FD06AA9C
:100AA00037A12D2001F0A2FD06AA38A12A2001F0CD
:100AB0009DFD06AA38A1352001F098FD06AA39A1AE
:100AC0002E2001F093FD06AA39A1342001F08EFDFD
:100AD00006AA3AA1262001F089FD06AA3AA12720FC
:100AE00001F084FD07B000BD240000202800002094
:100AF0002C00002030000020B80E0020353F0008F8
:100B0000800B0020C53E000870080020014100084D
:100B1000600500206143000858120020D53F0008FE
:100B2000D80C002015420008F8160020AD3E000841
:100B30006815002031420008F019002039430008F0
:100B4000381B002075410008201D0020E1400008EE
:100B50004D795441534B00005461736B4576656E7B
:100B6000740000005461736B56697250776D000019
:100B70005461736B52706D005461736B4B657900F7
:100B80005461736B53617665000000005461736BB0
:100B90004D656173757265005461736B5374617454
:100BA000750000005461736B417665726167650082
:100BB0005461736B54696D656F7574005461736B28
:100BC00052756E696E6700005461736B4D6F64629D
:100BD00075730000704770477047000010B54FF400
:100BE000C06001F0C9F902F09BF8322300221146DF
:100BF000104601F085FE00F0DDFB00214FF461405E
:100C000000F06EFC0AA002F035FF01F057FCFFF780
:100C100059FE0A2300221146104601F071FE00BF62
:100C2000002305221946184601F06AFEF8E7000085
:100C30005541525431204F4B0D0A00007047704708
:100C4000704700BF612803DBA0F15701C8B208E07C
:100C5000392803DDA0F13701C8B202E0A0F130016C
:100C6000C8B200F00F00704730B58FB0052269465A
:100C700024A002F0B9FD0446012000F039FB0DF874
:100C80000400601CC4B22C200DF80400601CC4B227
:100C90001E490968086904F0B9F985B20DEB04032F
:100CA0001BA229461BA001F0B7F82044C4B2174983
:100CB0000968486904F0AAF985B20DEB040314A28F
:100CC000294615A001F0A8F82044C4B20F490968CC
:100CD000886904F09BF985B20DEB04030CA2294648
:100CE0000EA001F099F82044C4B20DEB04010522D6
:100CF0000BA002F079FD2044C4B2684603F05CFD0D
:100D00000FB030BD2645542C00000000100000201C
:100D10002C00000050783D0049783D0044783D00AB
:100D20000D0A00000348008840F001000249A1F8C4
:100D3000340C7047346C00400060004002460021D3
:100D40000149114408887047006C00400022024AA3
:100D50000244116070470000006C004000BFFEE7D5
:100D600018B10B7813430B7002E00B7893430B70B0
:100D7000704721B1026842F00102026004E002689B
:100D80004FF6FE731A4002607047000001684FF68C
:100D9000FE72114001600021016041608160C1600C
:100DA0004E49884208D14D490839496841F00F0140
:100DB0004A4A083A516090E048491431884208D1C3
:100DC00046490839496841F0F001444A083A5160FF
:100DD00083E042492831884208D1404908394968AE
:100DE00041F470613D4A083A516076E03B493C313C
:100DF000884208D139490839496841F47041374A75
:100E0000083A516069E035495031884208D1334988
:100E10000839496841F47021304A083A51605CE071
:100E20002E496431884208D12C490839496841F477
:100E300070012A4A083A51604FE0284978318842C7
:100E400008D126490839496841F07061234A083AB7
:100E5000516042E02249884208D1011F096841F0EF
:100E60000F011E4A083AC2F8041436E01C49143136
:100E7000884209D11A49091F096841F0F001174A4F
:100E8000083AC2F8041428E015492831884209D1EB
:100E90001349091F096841F47061104A083AC2F801
:100EA00004141AE00E493C31884209D10C49091F4B
:100EB000096841F47041094A083AC2F804140CE088
:100EC00007495031884208D10549091F096841F492
:100ED0007021024A083AC2F8041470470800024020
:100EE0000804024010B50022026847F6F0739A43E6
:100EF0000C6A8B6823430C6923434C6923438C6938
:100F00002343CC6923434C6A23438C6A23431A430B
:100F10000260CB6843600B6883604B68C36010BDA0
:100F2000704770477047704708B51F20ADF8000044
:100F300000208DF803006946014800F04BF808BD19
:100F40000008014008B50121052002F087FC4FF49C
:100F50008070ADF8000003208DF8020018208DF895
:100F600003006946074800F035F84FF48050ADF8AB
:100F7000000048208DF803006946024800F02AF876
:100F800008BD00000008014008B50121080302F077
:100F900065FC0121084602F061FCA020ADF80000CC
:100FA00003208DF8020018208DF8030069460848D8
:100FB00000F010F84020ADF8000003208DF802008A
:100FC00010208DF803006946014800F003F808BDC1
:100FD00000080140F0B5002200230024002500266F
:100FE000002791F803C00CF00F0291F803C01CF029
:100FF000100F03D091F802C04CEA0202B1F800C011
:101000001CF0FF0F31D0066800242BE04FF0010CDC
:101010000CFA04F5B1F800C00CEA0503AB4220D18C
:10102000A5004FF00F0C0CFA05F7BE4302FA05FCC1
:101030004CEA060691F803C0BCF1280F06D14FF028
:10104000010C0CFA04FCC0F814C00AE091F803C0CB
:10105000BCF1480F05D14FF0010C0CFA04FCC0F8AC
:1010600010C0641C082CD1D30660B1F800C0BCF1DC
:10107000FF0F34DD466800242EE004F1080C4FF029
:10108000010E0EFA0CF5B1F800C00CEA0503AB42F4
:1010900021D1A5004FF00F0C0CFA05F7BE4302FA60
:1010A00005FC4CEA060691F803C0BCF1280F05D1F7
:1010B00004F1080C0EFA0CFEC0F814E091F803C01D
:1010C000BCF1480F07D104F1080C4FF0010E0EFAE5
:1010D0000CFEC0F810E0641C082CCED34660F0BDB6
:1010E000F0B5002200230024002500F00046B6F1F0
:1010F000004F02D11C4EF46901E01B4E7468C0F32E
:10110000034582B200F44016B6F5401F08D124F022
:101110007064154E766826F07066134F7E6012E09C
:1011200000F48016B6F5801F06D1032606FA05F3F3
:101130009C4344F0706406E0460D360102FA06F660
:10114000B44344F0706421B1460D360102FA06F64C
:10115000344300F00046B6F1004F02D1024EF46174
:1011600001E0014E7460F0BD000001400246002025
:1011700093680B4201D0012000E0002070474161DC
:101180007047016170472DE9F04104460F4615464E
:101190002946204600F004F806463046BDE8F081B6
:1011A00030B502460023002404E032F814502B44EA
:1011B000651CACB28C42F8DBB3FBF1F5A8B230BDD4
:1011C00030B58DB00AA837A11CC91CC024223849EB
:1011D00001A8FFF76CF900259DF82D00202810D1FB
:1011E0009DF83000FFF72DFD324900FB01F49DF81A
:1011F0003100FFF726FD40F27121484304EB001453
:101200000FE09DF83100FFF71CFD2A4900FB01F4B7
:101210009DF83200FFF715FD40F27121484304EBC1
:101220000014002521E005EB450101AA88180322DE
:101230000AA9FFF7CFF8B0B9681C0A2190FBF1F0BA
:1012400000EB4001C1EBC01004EBC004681C0A2194
:1012500090FBF1F201FB120000EBC00101EB00106A
:1012600004EB800403E0681CC5B20C2DDBDB00BF7F
:101270009DF82D00202805D19DF82C00FFF7E1FCFA
:1012800004440CE09DF82C00FFF7DBFC00EB800031
:1012900004EB40049DF82D00FFF7D3FC04442046E6
:1012A0000DB030BD4A756C203331203230313900F9
:1012B00000550008A086010010B5FFF7D3FA0948D1
:1012C000008840F2E261081A00EB8000400040F61E
:1012D000E441484344F2CC4190FBF1F0FA3002493A
:1012E000088010BD302000206A1F002000BFFEE7EC
:1012F00000F00F00092806DDA0F10A01C8B200F1D4
:101300004101C8B202E000F13001C8B270470000EC
:1013100010B5044640210748FFF731FF204602F090
:1013200063FB022001F0ACFA40210248FFF729FFDD
:1013300010BD00000008014070B504460D46402174
:101340000B48FFF71CFF4FF4204604F01F0046EA4D
:10135000C01605F00F0046EAC006304602F044FB16
:10136000022001F08DFA40210148FFF70AFF70BD0D
:101370000008014010B540210D48FFF702FF48F278
:101380002050FFF7C5FF4FF40340FFF7C1FF4FF4B4
:101390000040FFF7BDFF48F2A000FFF7B9FF48F299
:1013A0002000FFF7B5FF48F26000FFF7B1FF10BD66
:1013B0000008014008B54FF6FF714448FFF7E1FE11
:1013C0000121042002F04AFA0121082002F046FA25
:1013D0000121084602F042FA0121880302F03EFA98
:1013E0000121102002F03AFA0121042002F036FA1D
:1013F00001213748FFF774FE3648406820F020008E
:10140000344948604FF40070ADF8000003208DF8B7
:10141000020018208DF8030069462C48FFF7DAFD1A
:101420004FF48060ADF8000048208DF80300694655
:101430002648FFF7CFFD4FF48050ADF8000048205C
:101440008DF8030069462148FFF7C4FD03208DF89D
:10145000020010208DF80300C001ADF800006946BD
:101460001A48FFF7B7FD4FF40040ADF80000694699
:101470001648FFF7AFFD0120ADF800006946164899
:10148000FFF7A8FD0220ADF8000069461248FFF7FB
:10149000A1FD4020ADF8000069461048FFF79AFD15
:1014A00003208DF8020014208DF803000820ADF809
:1014B000000069460848FFF78DFD1020ADF80000D8
:1014C00069460548FFF786FD08BD00000008014099
:1014D00000023000002004E0000C01400010014038
:1014E00030B585B004460D460121880302F0B6F9F7
:1014F00001940020ADF80800ADF80A00ADF80C50DA
:10150000ADF810000C20ADF80E0001A90F4803F053
:1015100083F801210D4803F024F825208DF8000000
:1015200002208DF8020001208DF80300684600F0CB
:10153000E9FC03F0E7F802F0F3FF012240F2255145
:10154000024803F044F805B030BD00000038014007
:101550002DE9F0430446DFF834804146204603F08D
:1015600097F9064638F8167008EB4600B0F8029076
:10157000E01B00EB8000A9EB070190FBF1F00521D7
:1015800001FB060085B22846BDE8F083700000200C
:1015900010B501214FF0C05002F050F9012002F0C7
:1015A0000BF9FFF7BFFB0820FFF7C8FB044600213B
:1015B0000820FFF7CBFB162C00D010BD014800F02F
:1015C00003F8FAE700F0FF1F70B5044626683046BE
:1015D000FEF725FE201D40F00105A84770BD000064
:1015E0001CB504462B484079A04202D029484471DA
:1015F0001CBD2848807927494979884204D025486C
:10160000407924498871F3E72248C07921498979D2
:10161000884204D01F4880791E49C871E8E71D48F8
:1016200040791C49087108226846FEF7FAFEDDE998
:10163000000100F0ABF91748C078164909798842D3
:1016400008D0144800791349C87000204870887089
:1016500008701DE00F480078FE2804DA0D48007875
:10166000401C0C4908700B48007988B10948407843
:10167000FE2804DA07484078401C064948700548AF
:101680008078FE2804DA03488078401C014988707D
:10169000AEE70000CC00002070B504460025012014
:1016A00000F078FB14F0010F03D00821B548FFF7D4
:1016B00066FD14F0020F03D01021B248FFF75FFD62
:1016C0000320B14988701020C87020200880AD48E0
:1016D000FFF780FC2021AB48FFF753FD0320AA4908
:1016E00088701020C87040200880A648FFF772FC60
:1016F0004021A448FFF743FD0320A3498870102030
:10170000C870802008809F48FFF764FC80219D48B6
:10171000FFF735FD022001F0B3F8022001F0B0F828
:10172000022001F0ADF804209749C87040200880DD
:101730009448FFF74FFC04209349C870802008802C
:101740009048FFF747FC03208F4988701020C8702D
:10175000202008808B48FFF73DFC20218948FFF7B7
:101760000EFD002000F016FB08218648FFF7FEFC66
:1017700008B945F0010510218248FFF7F7FC08B9C8
:1017800045F00205012000F005FB14F0040F03D022
:1017900008217C48FFF7F3FC14F0080F03D0102158
:1017A0007848FFF7ECFC0320774988701020C87058
:1017B000402008807348FFF70DFC40217148FFF777
:1017C000E0FC0320704988701020C8702020088039
:1017D0006C48FFF7FFFB20216A48FFF7D0FC03208D
:1017E000694988701020C870802008806548FFF71C
:1017F000F1FB80216348FFF7C2FC022001F040F8B2
:10180000022001F03DF8022001F03AF804205E4980
:10181000C870802008805B48FFF7DCFB04205A4931
:10182000C870202008805748FFF7D4FB0320564992
:1018300088701020C870402008805248FFF7CAFB0B
:1018400040215048FFF79BFC002000F0A3FA08213C
:101850004C48FFF78BFC08B945F0040510214948B6
:10186000FFF784FC08B945F00805012000F092FA62
:1018700014F0100F03D008214248FFF780FC14F049
:10188000200F03D010213F48FFF779FC03203E4989
:1018900088701020C870802008803A48FFF79AFBB3
:1018A00080213848FFF76DFC0320374988701020ED
:1018B000C870402008803348FFF78CFB4021314836
:1018C000FFF75DFC0320304988701020C87020208D
:1018D00008802C48FFF77EFB20212A48FFF74FFCA9
:1018E000022000F0CDFF022000F0CAFF022000F02D
:1018F000C7FF04202449C870402008802148FFF712
:1019000069FB04202049C870202008801D48FFF78B
:1019100061FB03201C4988701020C870802008805B
:101920001848FFF757FB80211648FFF728FC0020D6
:1019300000F030FA08211348FFF718FC08B945F009
:10194000100510210F48FFF711FC08B945F02005DC
:1019500004200D49C870802008800A48FFF73AFB30
:1019600004200949C870402008800648FFF732FB70
:1019700004200549C870202008800248FFF72AFB90
:10198000284670BD000C0140E400002013B59DF80E
:101990000400082812D006DC012809D0022810D043
:1019A00004284CD107E010280FD0202847D126E08A
:1019B00003F058F843E002F09FFF40E002F0F8FF28
:1019C0003DE000201F49087039E01F4800791E499A
:1019D000C978884212D000201C4988710846C07C12
:1019E00040B9642000F04CFF002002F0BBF86420F6
:1019F00000F046FF012015494875C8741FE01248E1
:101A00004078032803D1012002F0ACF816E00E481C
:101A1000407832280DDB01200C49C8742D208871D4
:101A200009484078962809DD08468079401C88716D
:101A300004E000200549C8748871487500BF00BFE4
:101A40001CBD00006E000020CC000020501F0020B4
:101A500010B504465648007807287BD2DFE800F02E
:101A60000423355B82838400042252490020FFF75F
:101A700077F901224F49491C0020FFF771F908222C
:101A80004C49491E0020FFF76BF94B49C88849496A
:101A9000091F00F099F848498988C8B24549091FCB
:101AA00000F0DEF862E0042242490120FFF758F915
:101AB00001224049491C0020FFF752F908223D4904
:101AC000491E0020FFF74CF950E00422394900205C
:101AD000FFF746F901223749491C1046FFF740F944
:101AE00008223449491E0020FFF73AF914F0010F8B
:101AF00005D13049091F31A000F0E0F805E0304978
:101B000008892C49091F00F05FF82A49091F2DA0F8
:101B100000F00CF92AE0042226490020FFF720F902
:101B200001222449491C0020FFF71AF90822214903
:101B3000491E0120FFF714F91E49091F1FA000F0DC
:101B4000BDF814F0010F06D11A49091F1DA000F0BD
:101B5000EDF806E009E01A49887A1649091F00F0F5
:101B60007FF803E002E001E000E000BF00BF14489E
:101B7000407D30B901220F4908310020FFF7F0F80D
:101B800005E001220B4908311046FFF7E9F80C483F
:101B9000C07C30B90422074908310020FFF7E0F883
:101BA00005E00422034908310120FFF7D9F810BDF0
:101BB0006E000020F00000206A1F00206E6E6E0094
:101BC000501F00206E6E000030B5491DB0F57A7FC1
:101BD00001DB40F2E730642390FBF3F30A2493FB2C
:101BE000F4F504FB15331D4CE25C0B7803F00103A4
:101BF0000B700B78FE2404EA221423430B7002F0CE
:101C00000F034B700A2390FBF3F30A2493FBF4F5C4
:101C100004FB1533114CE25C8B7803F001038B70ED
:101C20008B78FE2404EA221423438B7002F00F0306
:101C3000CB700A2390FBF3F403FB1403074CE25C24
:101C40000B7903F001030B710B79FE2404EA2214D3
:101C500023430B7102F00F034B7130BD3E00002097
:101C600030B5632800DD63200A2390FBF3F30A24D8
:101C700093FBF4F504FB15330F4CE25C13118B70EE
:101C8000CB7803F00803CB70CB7802F00704234332
:101C9000CB700A2390FBF3F403FB1403064CE25CC5
:101CA00013110B704B7803F008034B704B7802F064
:101CB000070423434B7030BD4800002010B5491D78
:101CC0000378613B184CE25C0B7803F001030B7066
:101CD0000B78FE2404EA221423430B7002F00F0356
:101CE0004B704378613B104CE25C8B7803F001034E
:101CF0008B708B78FE2404EA221423438B7002F04D
:101D00000F03CB708378613B074CE25C0B7903F0E7
:101D100001030B710B79FE2404EA221423430B7197
:101D200002F00F034B7110BD5200002010B5037874
:101D3000613B0E4CE25C13118B70CB7803F008030F
:101D4000CB70CB7802F007042343CB704378613B20
:101D5000064CE25C13110B704B7803F008034B70D8
:101D60004B7802F0070423434B7010BD6000002045
:101D700010B5002408E00648005D00F00F01204681
:101D8000FFF7DAFA601CC4B20D2CF4DB10BD0000C2
:101D9000EC00002038B504464CB303208DF8020057
:101DA00010208DF803000820ADF80000694619489E
:101DB000FFF710F91020ADF8000069461548FFF74D
:101DC00009F92020ADF8000069461248FFF702F932
:101DD0004020ADF8000069460E48FFF7FBF8802070
:101DE000ADF8000069460B48FFF7F4F810E0482012
:101DF0008DF803000820ADF8000069460548FFF79C
:101E0000E9F81020ADF8000069460248FFF7E2F853
:101E100038BD0000000C01402DE9F04104460D469C
:101E200016461F4614223946204601F0DDFC804646
:101E300042F2107095FBF0F00A2190FBF1F301FBE8
:101E40001300C2B21046FFF753FA07F8080008F172
:101E5000010000F0FF084FF47A7095FBF0F00A21C2
:101E600090FBF1F301FB1300C2B21046FFF740FAFA
:101E700007F8080008F1010000F0FF08642095FB56
:101E8000F0F00A2190FBF1F301FB1300C2B21046FF
:101E9000FFF72EFA07F8080008F1010000F0FF082C
:101EA0000A2095FBF0F00A2190FBF1F301FB1300EF
:101EB000C2B21046FFF71CFA07F8080008F101004B
:101EC00000F0FF080A2095FBF0F100FB1150C2B2B0
:101ED0001046FFF70DFA07F8080008F1010000F0BE
:101EE000FF0807EB08011422304601F07DFC404456
:101EF00000F0FF084046BDE8F08100BFFEE77047F4
:101F00007047000070B5002100230F22C4780CB385
:101F1000164C246804F4E064C4F5E064210AC1F1BD
:101F20000403CA40447804FA03F18478144021433E
:101F300009010F4C0678A155047804F01F0501240F
:101F4000AC4005786D114FF0E02606EB8505C5F82D
:101F5000004109E0047804F01F040125A540054C68
:101F60000678761144F8265070BD00000CED00E0B4
:101F700000E400E080E100E002490143024A116010
:101F8000704700000000FA050CED00E01D481E48F7
:101F90001E481F481F482048204821482148224801
:101FA00022482348234824482448254825482648D1
:101FB00026482748274828482848294829482A48A1
:101FC0002A482B482B482C482C482D482D482E4871
:101FD0002E482F482F483048304831483148324841
:101FE0003248334833483448344835483548364811
:101FF000364837483748384838483948394800BFA4
:102000007047000024550008285500082E55000888
:10201000305500082C55000832550008345500088A
:1020200036550008385500083A5500083C55000858
:102030003E55000840550008425500084455000828
:1020400046550008485500084A5500084C550008F8
:102050004E550008505500085255000854550008C8
:1020600056550008585500085A5500085C55000898
:102070005E55000860550008625500086455000868
:1020800066550008685500086A5500086C55000838
:102090006E55000870550008725500087455000808
:1020A000765500087A5500087C5500087E550008D2
:1020B000805500087C2F0020FC3200208455000849
:1020C00086550008885500088A5500088C55000878
:1020D0008E55000890550008925500089455000848
:1020E00082550008965500082DE9F04104460D463A
:1020F000164600271CB904203070BDE8F08115B9E0
:102100000C203070F9E71148007810B112203070BF
:10211000F3E72078012808D0022807D0032802D04E
:10212000042804D100E000BF00BF00BF02E001208E
:102130003070E2E700BFFEF799F807466561384660
:10214000FEF798F800203070D7E700004D0100201E
:1021500010B500F019F800F055FF00F07DFF00F019
:102160009DFF00F01FFF00F0F1FE01F031F801F0DB
:102170005BF800F0D3FF00F0F9FF00F095FC00F0F1
:1021800009F8FFF703FF10BD0020014908807047E0
:10219000300100207047000010B500241A48007874
:1021A000012830D1FEF762F804461848007820B1C3
:1021B00016480078401E1549087014480078F8B990
:1021C00013480078E0B901F091F8124812490978F3
:1021D00050F82100114908600F480078104909782B
:1021E00088420DD00D480068C06B401C0B4909683F
:1021F000C8630C480068401C0A490860FEF752F8A2
:102200002046FEF737F810BD5A0100204D0100208E
:102210004E0100200C250020500100206801002004
:102220004F0100203401002010B500240B48007835
:10223000012811D1FEF71AF804460948007840B980
:1022400008480078FF2804D206480078401C054959
:1022500008702046FEF70EF810BD00005A0100205D
:102260004D0100204E01002010B5002413480078D5
:10227000012821D1FDF7FAFF044611480078C0B1CA
:102280000F480078401E0E4908700846007860B973
:102290000C48007828B92046FDF7ECFF00F0ECFF71
:1022A0000AE02046FDF7E6FF06E02046FDF7E2FFE4
:1022B00002E02046FDF7DEFF10BD00005A010020BD
:1022C0004E0100204D01002070B504460026104844
:1022D000007808B1002070BDFDF7C8FF06460D4824
:1022E0000568006820B10B4800684068094908602B
:1022F0003046FDF7BFFF4DB1032028702C81002030
:10230000686005A06861284600F012FE2846E2E7F2
:102310004D010020380100203F0000002DE9F04170
:1023200004460D46164600271CB904203070BDE84F
:10233000F0812078032802D001203070F7E732487E
:10234000007810B102203070F1E73048007810B109
:102350000D203070EBE7FDF789FF0746208940B17B
:102360002089401E20813846FDF784FF0020307010
:10237000DDE72748006890F8340040F00100244968
:10238000096881F8340000202149096881F8350086
:102390001F4800680563204600F088FD3846FDF7B9
:1023A00069FF00F069FFFDF761FF07461848006804
:1023B00090F8350020B1012809D0022806D102E0AA
:1023C000002030700BE00E20307008E000BF214686
:1023D0000F48006800F02AFD0A20307000BF00BFDF
:1023E00000200B49096881F834000949096881F81F
:1023F000350007490968C861054909680862384617
:10240000FDF738FF93E700004D0100204E0100204A
:102410006001002070B5044600250CB9042070BD91
:102420002078032801D00120F9E7FDF71FFF0546BA
:10243000A07A60B1002301221946204600F0A2FCD8
:102440002846FDF717FF00F017FF0020E7E7208977
:102450004FF6FF71884207D22089401C2081284610
:10246000FDF708FF0020DAE72846FDF703FF3320D9
:10247000D5E7000010B50B48007890B900F036FFA2
:10248000094800780949087009480749097850F84F
:102490002100084908600846006807490860FDF700
:1024A000ECFE10BD5A010020500100204F01002019
:1024B0000C250020680100206001002010B50024D8
:1024C000022000F0DDF9FDF7D1FE044600200B49A3
:1024D00008602046FDF7CEFEC82000F0D1F9FDF7D8
:1024E000C5FE044605480068054908600120054905
:1024F00008702046FDF7BEFE10BD00005C01002004
:10250000440100204C01002010B504462046FEF78F
:1025100061FB10BD2DE9F04F87B004460D4616460D
:102520001F46DDE912ABDDE91089002004903F2F42
:1025300003D92A2007B0BDE8F08FFDF797FE04907D
:102540002248007820B10498FDF794FE3C20F1E782
:102550001F4850F82700002832D101201C4941F8BB
:1025600027000498FDF786FE51464846149A01F06C
:1025700007F8324629462046149B00F0CDF8069015
:10258000149BCDE900AB029343464A463846069970
:1025900000F0C2FE0590059830B90E480078012879
:1025A0000CD100F069FE09E0FDF760FE0490002008
:1025B000074941F827000498FDF75CFE0598B9E744
:1025C0000498FDF757FE2820B4E700004D010020D5
:1025D0000C2500205A01002010B504462046FEF7C5
:1025E000FAFA10BD10B5FEF7F7FA10BD2DE9F0416B
:1025F00004460D4616464FF000083F2C05D9FF2C27
:1026000003D02A203070BDE8F08115B90C2030705D
:10261000F9E71448007810B112203070F3E7FDF7A5
:1026200025FE8046FF2C03D10F48006890F8364005
:102630000E4850F824702FB94046FDF71BFE43208A
:102640003070E0E7012F05D14046FDF713FE43202F
:102650003070D8E73D654046FDF70CFE0020307035
:10266000D1E700004D010020600100200C25002072
:1026700010B5FEF7E3FA10BD2DE9F04704460D460C
:102680004FF0000A3F2C04D9FF2C02D02A20BDE8CD
:10269000F0870DB90920FAE7002028606860FDF78F
:1026A000E5FD8246FF2C03D11948006890F83640BA
:1026B000184850F8246026B95046FDF7DBFD43204A
:1026C000E5E7012E04D15046FDF7D4FD4320DEE7B7
:1026D000308A10F0010F04D15046FDF7CBFD4520A4
:1026E000D5E74FF00008D6F80C90B7685046FDF7D4
:1026F000C1FD01E008F1010802CF0029FAD04FEA3C
:1027000088002860A9EB0800800068600020BEE710
:10271000600100200C25002070B5044610464FF0E3
:1027200080750560051F28462C606FF00105061FA7
:10273000304635604FF01235061F304635604FF099
:102740000335061F304635604FF00235061F304610
:1027500035606D10061F30463560051F284629601C
:102760004FF01135061F304635604FF01035061F0B
:10277000304635604FF00935061F304635604FF062
:102780000835061F304635604FF00735061F3046C6
:1027900035604FF00635061F304635604FF0053581
:1027A000061F304635604FF00435061F3046356051
:1027B00070BD00002DE9F04104464FF000083F2CA9
:1027C00002D14720BDE8F0813F2C03D3FF2C01D07C
:1027D0002A20F7E7FDF74AFD8046FF2C05D1224865
:1027E000006890F83640012508E01F48006890F81E
:1027F0003600A04201D1012500E000251B4850F819
:10280000247027B94046FDF735FD4820DAE7012F4F
:1028100004D14046FDF72EFD4320D3E797F83860FA
:102820001348805D97F83910C943C9B20840104970
:1028300088550846805D40B997F83A00C043C0B259
:102840000C49097808400B49087097F8340040F0AB
:10285000080087F834004046FDF70CFD012D01D13A
:1028600000F00AFD0020ADE7600100200C250020EB
:10287000520100205101002010B5FEF7E0F910BD13
:1028800070B5044600261948007800B170BD18489C
:10289000007800B1FAE73CB3FDF7E8FC06461548BE
:1028A000006890F838501448405D1249096891F862
:1028B0003910C943C9B208400F4948550846405D20
:1028C00050B90C48006890F83A00C043C0B20B49B8
:1028D00009780840094908700648006804633046D2
:1028E000FDF7C8FC00F0C8FCD0E700004D01002057
:1028F0004E01002060010020520100205101002003
:102900002DE9F04104460D4616461F461B48007847
:1029100010B15520BDE8F0811948007808B1322087
:10292000F8E724B91DB916B90FB95420F2E73B2DC9
:1029300001D95120EEE73B2E01D95220EAE7B7F545
:102940007A7F01D35320E5E74FF4FA6107FB01F0EA
:102950004910B0FBF1F14FF461606043C5EB051223
:1029600000EB8200304400EB4002C2EBC01001EBF0
:1029700000184046FFF784FF0020CBE74D01002000
:102980004E01002070B5002600F070F8FDF76EFCD7
:10299000064630480068401C2E4908603046FDF766
:1029A00069FC2D480078012853D12C48007820B1CB
:1029B000012804D0022809D103E001250BE00025FD
:1029C00009E0012501202549087004E001250020C7
:1029D0002249087000BF00BF05B970BD20480468D7
:1029E00033E0FDF743FC0646206B50B3206B401EDE
:1029F0002063206B28BB94F8340010F0370F08D008
:102A000014F8340F00F0C800207001206070343CCE
:102A100002E0002084F8350094F8340010F0080F2C
:102A20000FD13834A0780F49097808430D49087050
:102A300020780D49085C6178084314F838190A4A6F
:102A4000505464693046FDF715FC94F836003F2871
:102A5000C7D1C2E77C0100205A010020700100208C
:102A60006C010020510100205201002010B5FEF73A
:102A7000E7F807480088401C054908800846008898
:102A8000C82803D30020088000F004F810BD00001F
:102A90003001002010B503480068FFF7BBFC044676
:102AA000204610BD8C010020F8B54FF42071284855
:102AB00000F084FB4021274800F080FB002414E054
:102AC000601C87B204EB8400214901EBC00507EBD1
:102AD000870001EBC00664202870002085F82500DF
:102AE000EE601DA02862601C84B20F2CE8D304EBBA
:102AF0008400174901EBC00564202870002085F888
:102B00002500E86014A028620020144908601449D8
:102B100008801020134908800D48134908600120DF
:102B2000FFF7D2FB114908600020FFF7CDFB1049E9
:102B300008606A460FA10D480068FFF7D5FA6A469B
:102B400011A10B480068FFF7CFFA00F027F8F8BD95
:102B50007C2F0020FC3200203F0000008401002078
:102B600082010020800100209001002088010020C7
:102B70008C01002075432F4F532D494920546D720D
:102B80004C6F636B0000000075432F4F532D494974
:102B900020546D725369676E616C000000B587B098
:102BA0000323002240210B48CDE90323CDE9010195
:102BB0004FF6FD7300933D2300F1FC02002106480F
:102BC000FFF7A8FC06AA05A13D20FFF70FFD07B0FF
:102BD00000BD0000FC310020592C000875432F4F28
:102BE000532D494920546D720000000070B5032533
:102BF00080F82550012905D1154EC5693668354440
:102C000045610CE085692DB9114EC56936683544BA
:102C1000456104E00E4E8569366835444561456975
:102C200005F007030B4D05EBC30425682DB92060A3
:102C30000025C5600125A58006E022682060C260ED
:102C40001061A5886D1CA5800025056170BD000080
:102C500084010020FC3200202DE9F84300BF00BFB2
:102C60006A4600211A480068FFF758FBFFF7DCFAB4
:102C700018480068401C174908600846006800F0C2
:102C80000707154800EBC708D8F800401AE0E568C8
:102C9000104960690968884213D1204600F01EF887
:102CA00094F82400022804D101212046FFF79EFF5A
:102CB00002E0022084F82500666816B12046A1686B
:102CC000B0472C46002CE2D1FFF7CEFAC8E700004F
:102CD0008C01002084010020FC32002030B54569C1
:102CE00005F007040D4D05EBC4031D68854205D1B1
:102CF000C168196039B100250D6104E00169C2683D
:102D0000CA6002B11161012580F825500025C56017
:102D100005619D886D1E9D8030BD0000FC32002045
:102D2000154909684FF4FA62B1FBF2F0B0F1807F07
:102D300001D301211CE020F07F41491E4FF0E02229
:102D4000516100BF5117002905DA0F2109010B4A13
:102D50000B23D15404E00F210901094A5317D15420
:102D600000BF00214FF0E022916107211161002195
:102D700009B100BFFEE770471C01002018ED00E01C
:102D800000E400E02DE9F04F04460D4616461F46CC
:102D9000A07A224911F8009004F10B0010F8090004
:102DA00011F800A00AEBC90000F0FF0B1C4850F816
:102DB0002B800020C8F83000C8F8245098F8340060
:102DC000F143C9B2084088F8340088F8357098F8A3
:102DD000340010F0080F0FD198F83A001149097823
:102DE000084310490870104810F8090098F8391085
:102DF00008430D4901F809002146404600F016F845
:102E0000D8F8200030B14046D8F8201000F026F85D
:102E1000C8F81C405846BDE8F08F000098550008DF
:102E20000C250020510100205201002010B590F81F
:102E3000382001F10B039C5C90F83930DB43DBB2A6
:102E40001C4001F10B039C549B5C33B98B7A90F8C6
:102E50003A40E443E4B223408B7210BDF0B510F861
:102E6000384F8578467838380A461146136819E095
:102E700003F10B073F5D6FEA060C0CF0FF0C07EA4D
:102E80000C0703F10B0C0CF8047067463F5D3FB96B
:102E90009F7A6FEA050C0CF0FF0C07EA0C079F7293
:102EA000121D1368002BE3D1F0BD000010B51D4AC0
:102EB0001268D0611B4A126892F8383000F10B0298
:102EC000D35C184A126892F839201343154A1268E5
:102ED00092F8384000F10B021355827A114B1B68AF
:102EE00093F83A301A4382720E4A126892F83810F8
:102EF0000D4A525C0B4B1B6893F83930DB43DBB255
:102F00001A40094B5A541A46525C52B9054A126883
:102F100092F83A20D243D2B2044B1B781A40034BAA
:102F20001A7010BD600100205201002051010020E4
:102F300000228272002105E0002300F10B025354AD
:102F40004A1CD1B20829F7D3704700002DE9F0419F
:102F50005021114800F032F900240DE0601C85B2C8
:102F60000D4800EB041600EB051700203070776069
:102F70000AA0F060601C84B2042CEFD3064800EB7A
:102F8000041600203070706004A0F060024804490C
:102F90000860BDE8F08100003C2300203F000000F5
:102FA0003C01002070B54FF40A71134800F006F997
:102FB000002311E0581C86B203EB43000E4901EBDD
:102FC000C00406EB460001EBC005002020706560E0
:102FD0000AA06061581C83B2162BEBD303EB4300AD
:102FE000054901EBC00400202070606003A060610F
:102FF00008460349086070BD142100203F0000000E
:103000003801002000200A4908600A4908700A496E
:1030100008700A4908700A4908700A4908600A4994
:1030200008600A4908600A4908600A490870704740
:103030007C0100204D0100204E0100205B0100209A
:103040005A010020340100205C01002048010020CA
:10305000440100204C01002000210A4A1170002088
:1030600004E00021084A1154411CC8B20828F8D3D2
:103070000021064A1170064A1170064A1160064A7C
:103080001160704751010020520100204F010020C3
:1030900050010020680100206001002070B540F65A
:1030A0009801194800F08AF84FF48071174800F031
:1030B00085F8002313E0581CC4B203EB430000EB77
:1030C000C300114901EBC00504EB440000EBC40050
:1030D00001EBC0066E610EA02865581CC3B2182B08
:1030E000E9D303EB430000EBC300074901EBC00544
:1030F0000020686106A02865002006490860024893
:103100000549086070BD00000C2600200C25002039
:103110003F0000006C0100206401002000B587B072
:103120000323002220210B48CDE90323CDE901012F
:103130004FF6FF7300933F2300F17C020021064805
:10314000FFF7E8F906AA05A13F20FFF74FFA07B0FD
:1031500000BD00008C2400209134000875432F4FDF
:10316000532D49492049646C6500000000B587B0C3
:103170000323002240210B48CDE90323CDE90101BF
:103180004FF6FE7300933E2300F1FC020021064837
:10319000FFF7C0F906AA05A13E20FFF727FA07B0FE
:1031A00000BD00008C230020B934000875432F4F68
:1031B000532D4949205374617400000004E000223B
:1031C00000F8012B4A1E91B20029F8D17047000087
:1031D00070B578211148FFF7F1FF00250EE005EBEF
:1031E00045000E4901EBC004681C00EB400001EBF8
:1031F000C00060600AA06061681C85B2042DEED337
:1032000005EB4500054901EBC0040020606004A007
:10321000606108460349086070BD0000A42E0020CC
:103220003F000000740100202DE9F04160211048AA
:10323000FFF7C4FF00240DE0601C85B204EB4400DE
:103240000B4901EBC00705EB450001EBC0063E60F2
:10325000601C84B2032CEFD304EB4400044901EB5F
:10326000C00700203860084602490860BDE8F081C8
:103270001C2F00207801002010B50024FCF7F6FF79
:10328000044613480078F8B912480078E0B900F015
:103290002DF811481149097850F8210010490860AB
:1032A0000E4800780F49097888420DD00C48006814
:1032B000C06B401C0A490968C8630B480068401C81
:1032C00009490860FCF7E9FF2046FCF7D3FF10BD71
:1032D0004D0100204E0100200C250020500100204F
:1032E000680100204F010020340100200649074AF0
:1032F0001278885C0649095C034A515C01EBC00105
:10330000044A1170704700009855000851010020D0
:1033100052010020500100202DE9FC5F04460D46BB
:1033200016461F46DDE90D9ADDF830800020019039
:10333000FCF79CFF01904F48D0F800B0BBF1000FA4
:103340007ED04C49DBF8140008600198FCF792FF2E
:10335000CBF800508BF8364000208BF834008BF807
:103360003500CBF83000CBF80490CBF80C80CBF8CC
:103370000860ABF810A0ABF812708BF83B00E010BF
:103380008BF8380004F007008BF837009BF83810F2
:10339000012088408BF83A009BF8371001208840C4
:1033A0008BF839000020CBF81C00CBF82000CBF8BC
:1033B0002800CBF82400CBF83C00CBF84400CBF835
:1033C0004000CBF84800CBF84C002BA0CBF85000C5
:1033D0000020009009E000220BF15400009940F811
:1033E00021200098401CC0B2009000980028F2D024
:1033F0005846FFF789F85846FFF7EEF8FCF736FF16
:1034000001901E4840F824B01D480068CBF8140015
:103410000020CBF818001A48006818B11848006856
:10342000C0F818B01648C0F800B09BF83A0015492B
:1034300009780843134908709BF83800124900E0E6
:1034400012E0085C9BF8391008439BF838100E4ACC
:1034500050540E480078401C0C4908700198FCF745
:1034600009FF0020BDE8FC9F0198FCF703FF422004
:10347000F8E70000640100203F0000000C25002058
:103480006C01002051010020520100205B0100204E
:1034900070B5002400BF00BFFCF7E8FE04460548F5
:1034A0000068401C034908602046FCF7E3FEFFF774
:1034B00099F8F1E75C01002070B5002400BF03E03B
:1034C0004FF4C870FFF7DCF9194800780028F7D0EE
:1034D000184800686421B0FBF1F0164908600846FE
:1034E000006828B9002014490870FF20FFF762F92E
:1034F00000BFFCF7BBFE0446104800681049086096
:1035000000200E4908602046FCF7B4FE0C48006815
:1035100008490968B0FBF1F0C0F164000649087081
:10352000FFF7A6F800F00EF8C820FFF7A9F9E0E7CA
:103530004C01002044010020400100205C010020DB
:10354000480100207CB5002614E069463046FFF7AC
:1035500093F8054665B9094850F8264044B1012C56
:1035600006D0D4E9020100EB8100A0640198E06478
:10357000701CC6B23F2EE8D97CBD00000C2500208F
:1035800012F0010F08D012F0020F05D002E0491E20
:10359000002308C00029FAD17047000006490978C5
:1035A00001B97047002141608160C160C161016162
:1035B00041618161F5E70000000000202DE9F0473E
:1035C00004460D4616463146286801F079FE074646
:1035D0003946E86801F06CFBE860D5E9010101F0CB
:1035E0006FFE81466868A8606F600021606801F026
:1035F000DDFC1CD02448616801F0E6FB8246E968E6
:1036000001F04EFD05D22048616801F0DDFBE86065
:103610000DE00020616801F0D7FB8246E96801F007
:1036200019FE04D20020616801F0CEFBE860394643
:10363000206801F065FD2861E968606801F060FDBF
:1036400068614946A06801F05BFDA861D5E9040105
:1036500001F02EFB8246A96901F02AFB8046002179
:10366000404601F01DFD02D20020E86109E0064954
:10367000404601F0EFFD02D20348E86101E0C5F8E1
:103680001C80BDE8F087000000007A4400B501F01E
:1036900031FA4FF07F5018490968086017481649F9
:1036A000096848608007144909688860144815490A
:1036B00009680860144813490968486000201149E6
:1036C000096888600E481149096808600E480F496A
:1036D0000968486000200D49096888600C48006846
:1036E000FFF75CFF0B480068FFF758FF0A480068C7
:1036F000FFF754FF00BD000004000020CDCC4C3D7E
:103700000000A040080000200AD7233C0C00002045
:1037100010000020140000201800002000B587B021
:103720000121C80200F09AF80020ADF81000ADF8B1
:1037300012004FF47A70ADF814000020ADF81600B6
:103740008DF8180004A91A4800F05EFB4FF4487089
:10375000184908607020ADF800000120ADF80200A3
:103760000846006880B2ADF806000020ADF80800F9
:103770000820ADF80A004001ADF80C000020ADF8BB
:103780000E0008210A4800F035FB6946084800F0A1
:10379000E5FA0121064800F0A5FA0121044800F0ED
:1037A000B0FA0121024800F0B8FA07B000BD0000ED
:1037B000002C0140E8000020014908627047000029
:1037C00000000E420146B1F57A7F01DD4FF47A71B7
:1037D000C1F57A7290B2642800DA0020B0F57A7FE1
:1037E00001DD4FF47A70704730B50446002005E0E3
:1037F000235C0B5403B903E0451CE8B29042F7DBAD
:1038000000BF00250D5430BD0021034A516821F44A
:1038100040410143516070470010024029B1064AFF
:1038200052690243044B5A6104E0034A52698243DD
:10383000014B5A61704700000010024029B1064A4E
:10384000D2690243044BDA6104E0034AD26982433D
:10385000014BDA61704700000010024029B1064AAE
:1038600092690243044B9A6104E0034A92698243DD
:10387000014B9A61704700000010024010B54FF4F0
:103880004040FFF7C1FF01210846FFF7C7FF0121B4
:1038900040F21520FFF7E2FF10BD000030B5002117
:1038A0000022002300242E4D6D6805F00C0121B18B
:1038B000042905D0082923D105E02A4D056022E01E
:1038C000284D05601FE0264D6D6805F47012244DEB
:1038D0006D6805F48033022505EB92421BB9224D39
:1038E000554305600BE01E4D6D6815F4003F03D095
:1038F0001D4D5543056002E01A4D5543056002E039
:10390000184D056000BF00BF154D6D6805F0F00152
:103910000909164D6C5C0568E5404560104D6D6801
:1039200005F4E061090A114D6C5C4568E54085606D
:103930000B4D6D6805F46051C90A0C4D6C5C45680F
:10394000E540C560064D6D6805F44041890B074DA3
:1039500010356C5CC568B5FBF4F5056130BD000041
:103960000010024000127A0000093D00060100200C
:1039700010B5FCF717FEFEF7C3FAFDF7E3FAFFF701
:10398000CDFEFDF701FB00F001F810BD00B585B0DC
:10399000FDF7FAFA0020ADF800004FF48270ADF8A0
:1039A00002004FF40060ADF804000220ADF80600FC
:1039B0000120ADF808004002ADF80A003020ADF853
:1039C0000C000020ADF80E000720ADF8100069468D
:1039D000044800F030F80121024800F015F805B065
:1039E00000BD00000030014010B5044600BF0221B8
:1039F000044800F015F80028F9D02146014800F0ED
:103A000018F810BD0030014021B1028842F0400298
:103A1000028004E002884FF6BF731A4002807047AC
:103A20000246002013890B4201D0012000E0002053
:103A300070478181704710B50022028802F441521C
:103A40000B884C8823438C882343CC8823430C89E0
:103A500023434C8923438C892343CC8923431A4332
:103A60000280838B4FF2FF74234083830B8A03828F
:103A700010BD704770B50446002507E0605D00B9D1
:103A800006E0605D00F052FE681CC5B2FF2DF5DB5C
:103A900000BF70BD10B500F001F810BD002000217E
:103AA0002E4A126842F480322C4B1A6000BF2B4A17
:103AB000126802F40031401C11B9B0F5A06FF6D1C4
:103AC000264A126812F4003F01D0012100E00021D3
:103AD000012942D1224A126842F01002204B1A609A
:103AE0001A46126822F003021A601A46126842F05F
:103AF00002021A60194A5268184B5A601A465268F4
:103B00005A601A46526842F480625A601A465268F5
:103B100022F47C125A601A46526842F4E8125A6043
:103B20001A46126842F080721A6000BF0B4A12688F
:103B300012F0007FFAD0094A526822F00302074BC4
:103B40005A601A46526842F002025A6000BF034AA5
:103B5000526802F00C02082AF9D1704700100240A6
:103B60000020024010B5044624B901210448FDF7A5
:103B700008FB03E001210248FDF701FB10BD000036
:103B8000000C014010B5FCF771FB044606480078B4
:103B9000401C054908702046FCF76CFBFEF7F2FE5E
:103BA000FEF7FAFA10BD00004D01002010B51348D1
:103BB000006840F00100114908600846406810495B
:103BC00008400E494860084600680E4908400B4905
:103BD00008600846006820F48020086008464068B5
:103BE00020F4FE0048604FF41F008860FFF752FF8A
:103BF0004FF000600449086010BD00000010024052
:103C00000000FFF8FFFFF6FE08ED00E0704700003F
:103C100010B502210D4800F08FF818B102210B48B1
:103C200000F06CF80421094800F086F818B104216E
:103C3000064800F063F80821044800F07DF818B148
:103C40000821024800F05AF810BD0000002C014085
:103C500010B52021014800F051F810BD002C0140A2
:103C60007047000010B501210D4800F065F818B14B
:103C700001210B4800F042F81021094800F05CF8DF
:103C800018B11021064800F039F80821044800F066
:103C900053F818B10821024800F030F810BD0000B8
:103CA0000004004010B501210D4800F045F818B19E
:103CB00001210B4800F022F81021094800F03CF8DF
:103CC00018B11021064800F019F80821044800F046
:103CD00033F818B10821024800F010F810BD0000B8
:103CE0000008004021B1828842F00102828004E095
:103CF00082884FF6FE731A4082807047CA43028260
:103D0000704721B1028842F00102028004E002887B
:103D10004FF6FE731A400280704731B1B0F844206C
:103D200042F40042A0F8442005E0B0F84420C2F379
:103D30000E02A0F84420704730B502460020002350
:103D40000024158A05EA0103958905EA010413B1E7
:103D50000CB1012000E0002030BD000070B5002251
:103D600000230024058C4FF6FE7635400584038C35
:103D70008488028B4FF68F752A40B51E2A400D8825
:103D80002A43751E2B400D892B434D882B43144D20
:103D9000A8420BD0134DA84208D0134DA84205D01D
:103DA000124DA84202D0124DA84213D14FF6F7751A
:103DB0002B404D892B434FF6FB752B408D882B43B1
:103DC0004FF6FF652C404FF6FF552C408D892C4354
:103DD000CD892C4384800283CD888586038470BD81
:103DE000002C0140003401400040014000440140EB
:103DF000004801400022028B4FF6F7731A400A4335
:103E00000283704781867047002202881D4B9842CA
:103E10000ED01D4B98420BD0B0F1804F08D01B4BF9
:103E2000984205D01A4B984202D01A4B984204D1BE
:103E30004FF68F731A404B881A43174B984207D09E
:103E4000164B984204D04FF6FF431A40CB881A43D2
:103E500002808B8883850B8803850A4B98420BD0A0
:103E6000094B984208D00E4B984205D00D4B984212
:103E700002D00D4B984201D10B7A03860123838235
:103E800070470000002C0140003401400004004055
:103E900000080040000C00400010004000140040EA
:103EA00000400140004401400048014010B500BFFF
:103EB0004FF4C870FEF7E4FC00BFC820FEF7E0FC3A
:103EC000FBE7000070B500BF002017490870002410
:103ED00000BF15480078844201DA13480478002CAA
:103EE00018DD1248007840F01000104908704FF4B7
:103EF000FA6060430A21B0FBF1F52846FEF7C0FCEA
:103F000000240020084908700848007820F01000BC
:103F1000064908700648407E401C054948764FF423
:103F2000C870FEF7ADFCD4E734000020D4000020B8
:103F3000501F002070B500BF01201D4908700020EF
:103F40001C4908701C4908701C4988804FF47A602D
:103F5000FEF796FCFCF788FE00BF0420FEF790FCFD
:103F60001748007840F001001549087008460078AD
:103F7000FDF792FB04462046FDF732FB114800791D
:103F80003028EAD10A4800780128E6D10020084903
:103F9000087001210C48FDF7A3F803200B49887035
:103FA0001020C870802008800948FDF713F8D4E776
:103FB000CA000020CB0000206E000020501F00200F
:103FC000D4000020CC00002000043000E4000020D9
:103FD00000100140F0B58FB04FF4C870FEF750FCF0
:103FE00000BF00BF0EAA002134480068FEF796F912
:103FF000FDF762F932484288082332493248FCF71B
:1040000053FC002412E0A31C2D4E36F813202F4B36
:1040100003EB440104EBC40303EB04132C4E06EB47
:1040200043001923FCF740FC601CC4B2042CEADBFB
:104030002348408840F2DE31484340F6FF7190FB50
:10404000F1F0244948802448807A0A2190FBF1F05D
:10405000204988801A4885882846FDF779FA1D4945
:10406000C880192201A91A483230FDF78CF805469C
:104070002846FDF76DFA17490881192201A914484D
:104080006430FDF780F80646C01706EB5070C0108C
:1040900010494881192201A90D489630FDF773F89F
:1040A000142190FBF1F00B4988810C480068FEF761
:1040B000B1F90420FEF7E4FB94E70000240000209F
:1040C000302000200401002004210020FC000020FA
:1040D0003C2000206A1F0020501F002028000020E4
:1040E00010B500BF4FF4C870FEF7CAFB4FF4C8709C
:1040F000FEF7C6FB00BF0420FEF7C2FBFBE7000093
:1041000038B500BFFFF7C2FAC820FEF7B9FB00BF01
:104110006A46002112480068FEF700F91148C07C89
:1041200050B91048807938B90F480068FFF736FA5F
:1041300000200C49888003E00A48807A0949888079
:1041400008498888FFF73EFB084908600846006870
:1041500081B20748FFF756FE0420FEF791FBD7E730
:1041600028000020501F002010000020E800002040
:10417000002C014010B500BF002021490870FDF758
:104180001FF808201F498872642008810020888059
:1041900001204875C87401221B490020FCF7E0FD8E
:1041A00001221949891C0020FCF7DAFD0822164972
:1041B000891F0020FCF7D4FDFFF7DAFB022113482A
:1041C000FCF7DDFFFDF7D6F81148007840F001005C
:1041D0000F4908704FF47A70FEF752FB02210B482A
:1041E000FCF7CFFF0020FFF7BDFC00BF0549487E6C
:1041F000FDF72EFCFDF7BCFD2820FEF741FBF5E79F
:1042000036000020501F0020F3000020000C014069
:10421000D400002010B500BF4FF4C870FEF730FB8B
:1042200000BFFCF721FD4FF4FA60FEF729FBF8E729
:1042300070B500BF00203E4908704FF47A70FEF759
:104240001FFB002415E04FF47A70FEF719FB394884
:10425000007840F03F00374908704FF47A70FEF75D
:104260000FFB3448007800F0C00032490870601C31
:10427000C4B2032CE7DB00BF2D480078002840D0F3
:10428000012828D002283BD12A48007840F020009D
:1042900028490870FA20FEF7F3FA2648007820F043
:1042A0002000244908704FF4FA70FEF7E9FA21481B
:1042B000007840F020001F490870FA20FEF7E0FA6D
:1042C0001C48007820F020001A49087040F6B830E9
:1042D000FEF7D6FA2AE01748007840F0200015498A
:1042E00008704FF4FA70FEF7CBFA1248007820F00D
:1042F00020001049087040F6AC50FEF7C1FA15E0F6
:1043000000BF0C48007840F020000A4908704FF4C4
:10431000FA60FEF7B5FA0748007820F0200005495A
:1043200008704FF4FA60FEF7ABFA00BFA4E7000094
:1043300035000020D400002010B500BF4FF4C87035
:10434000FEF79EFA00BF0A20FEF79AFA0A20FEF74F
:1043500097FA02480068FEF75DF8F4E724000020B1
:104360002DE9FC5F00BF3A4E3A4FDFF8EC90DFF8E2
:10437000ECA04FF47A754FF00A08C820FEF780FAD7
:1043800000BF002412E001A830F81400002807DD67
:1043900001A830F81400401E01A921F8140003E020
:1043A0000021204600F0D6FB601CC4B2022CEADBE0
:1043B000002D02DD681E85B213E04FF47A750024EB
:1043C0000DE036F8140001A921F81400385D00282A
:1043D00003DD0121204600F0BDFB601CC4B2022CAD
:1043E000EFDB002410E03DF81400002806DD3DF866
:1043F0001400401E80B22DF8140003E00021204676
:1044000000F0D8FB601CC4B2022CECDBB8F1000F4A
:1044100004DDA8F101001FFA80F815E000F0ECF9C6
:104420004FF00A0800240DE039F814002DF81400AC
:104430001AF80400002803DD0121204600F0BAFB31
:10444000601CC4B2022CEFDB0220FEF719FA98E7D9
:10445000380000203C0000201C000020200000202C
:1044600010B500F001F810BD38B5FBF755FF054653
:1044700024480078401C234908702846FBF750FF69
:1044800040F22551204800F078F870B11E4800F045
:104490002FF9C4B2234610221C491D48FBF762FFC6
:1044A00040F22551184800F04DF840F227711648A7
:1044B00000F063F8B8B11748008848B900201649E1
:1044C0000870002240F227710F4800F080F80AE0DF
:1044D0006B46182211490F48FBF75EFF9DF800104C
:1044E000094800F00AF940F22661074800F045F853
:1044F00020B140F22661044800F024F8FDF74CFE9C
:1045000038BD00004D01002000380140781F002018
:10451000D8000020DE000020D60000208C1F0020E4
:1045200010B5012240F22771044800F050F8012232
:1045300040F22661014800F04AF810BD0038014001
:104540007047704710B500220023A1F510646A3C43
:1045500000D100BF0A1201249440A3B2DC430480BE
:1045600010BD21B1828942F40052828104E0828927
:104570004DF6FF731A408281704770B502460023E2
:10458000002400250020A1F510666A3E00D100BF7E
:10459000C1F3421501F01F04012606FA04F4012DAF
:1045A00002D19689344006E0022D02D1168A3440A9
:1045B00001E0968A34400B12012606FA03F31688AE
:1045C000334014B10BB1012000E0002070BDF0B504
:1045D0000024002500260023A1F510676A3F00D1C2
:1045E00000BF0346C1F3421401F01F05012707FA7B
:1045F00005F6012C01D10C3304E0022C01D110335B
:1046000000E014331AB11F6837431F6002E01F68CF
:10461000B7431F60F0BD00002DE9F04786B00446A7
:104620000D460026002700BFB146B246A88900B15A
:1046300000BFA246268A4CF6FF700640E888064373
:104640002682A6894EF6F3100640A88829890843D9
:10465000698908430643A681A68A4FF6FF400640B3
:10466000A8890643A68201A8FFF718F954461F48F7
:10467000824501D1049F00E0039FA08910F4004F00
:1046800008D007EBC70000EB071029684900B0FB12
:10469000F1F807E007EBC70000EB07102968890075
:1046A000B0FBF1F86420B8FBF0F00601300964219A
:1046B00001FB1089A08910F4004F09D0322101EBD1
:1046C000C9006421B0FBF1F000F00700064308E0E8
:1046D000322101EB09106421B0FBF1F000F00F0072
:1046E0000643268106B0BDE8F0870000003801408F
:1046F00001468888C0F308007047C1F30802828031
:104700007047000010B500200549087018210548C1
:10471000FBF713FE10210448FBF70FFE10BD00004D
:10472000D6000020DE000020D8000020F8B50446A6
:1047300000251C48008803280DDD0A2603E002201E
:1047400000F04CF8761E1748408816498988884240
:1047500001D1002EF3D106B90125234618221249B2
:104760001048FBF7FFFD11480078A0B96B461822EE
:104770000D490C48FBF710FE68B101200B49087089
:104780009DF800100A48FFF7B8FF012240F2277198
:104790000748FFF71CFF0DB9012000E0002080B2A0
:1047A000F8BD0000DE0000208C1F0020D600002095
:1047B0000038014000BFFEE738B504466A460021D4
:1047C00005480068FDF7AAFD2046FFF753F90248A7
:1047D0000068FDF71FFE38BD30000020002208E011
:1047E000002101E04B1C99B2B1F5167FFADB531C96
:1047F0009AB28242F4DB704710B51D480078401C25
:104800001B4908701B49088900F045FC1A490968D2
:1048100008601A49C88800F03EFC04460246164863
:10482000016817480068FEF7C9FE13490968C8699E
:1048300000F0ECFB134908800E49088900F02BFCBE
:104840001149096808600D49088900F024FC0446F4
:1048500002460D4801680D480068FEF7AFFE0A49A0
:104860000968C86900F0D2FB0649488010BD000005
:1048700022000020501F0020140000206A1F00208A
:104880000800002038000020180000200C00002044
:10489000F0B502462A250023002629E09D4202DCCD
:1048A00000200446F0BDE81A00EBD07703EB670761
:1048B000BCB2A54201DC2046F4E7A34201DB20465E
:1048C000F0E731F81400904201D12046EAE731F8D0
:1048D0001400904209DA601C31F81000904201DDAA
:1048E0002046DFE7601C83B200E02546701C86B2DC
:1048F0002A2ED3DB2046D5E72A48007807284ED257
:10490000DFE800F0042627054A4B4C0000BF26488C
:104910008078012808D12548807A632804DA234862
:10492000807A401C214988721F484078FA2807DAAB
:104930001D4880781E280ADD00201B49887006E08B
:10494000194880780F2802DD00201749887027E079
:1049500026E01548807801280AD11448008940F2E1
:10496000E731884204DA11480089401C0F49088168
:104970000D484078FA2807DA0B4880781E280ADDAF
:1049800000200949887006E0074880780A2802DD7F
:1049900000200549887003E002E001E000E000BF6C
:1049A00000BF70476E000020CC000020501F002088
:1049B0002948007807284CD2DFE800F004262705B4
:1049C00048494A0000BF25488078012808D124487A
:1049D000807A002804DD2248807A401E20498872AF
:1049E0001E484078FA2807DA1C4880781E280ADD1D
:1049F00000201A49887006E0184880780F2802DDE8
:104A000000201649887025E024E0144880780128A9
:104A100008D113480089002804DD11480089401E90
:104A20000F4908810D484078FA2807DA0B4880784A
:104A30001E280ADD00200949887006E007488078B2
:104A40000A2802DD00200549887003E002E001E049
:104A500000E000BF00BF70476E000020CC000020C7
:104A6000501F0020204800791F49C978884239D05A
:104A70001E480078072830D2DFE800F004080C1048
:104A800019222B000120194908702AE00220174939
:104A9000087026E003201549087022E00020134921
:104AA00008701348007808B10420087019E000204D
:104AB0000E4908700E48007808B10520087010E013
:104AC00000200A4908700A48007808B106200870DA
:104AD00007E000200549087003E000200349087042
:104AE00000BF00BF70470000CC0000206E00002017
:104AF000CB0000200A480B4908600B480B490860AE
:104B00000B480C4908600C480C4908600C480D49DA
:104B100008600D480D49086001200D490870704774
:104B20000C030020040000201803002008000020CF
:104B3000240300200C00002030030020100000207F
:104B400050030020140000207003002018000020F3
:104B50000000002070B504460D46082C25D2DFE881
:104B600004F004111E1F202122232DB14FF40061F7
:104B70000F48FCF706FB04E04FF400610C48FCF71B
:104B8000FEFA12E02DB14FF400410948FCF7F9FAA2
:104B900004E04FF400410648FCF7F1FA05E004E0B8
:104BA00003E002E001E000E000BF00BF70BD0000D4
:104BB0000008014070B504460D46082C17D2DFE806
:104BC00004F0040F10111213141525B180210948A7
:104BD000FCF7D7FA03E080210648FCF7D0FA06E09C
:104BE00005E004E003E002E001E000E000BF00BFF8
:104BF00070BD00000010014000B587B09DF818009E
:104C00000690FCF7C5FCFBF783FBFDF7A1FA032335
:104C100000225E210B48CDE9032300F5BA72CDE9ED
:104C20000030029100210848FDF774FC069006AAA6
:104C300006A10320FDF7DAFCFDF71CFC002007B0FD
:104C400000BD000094010020DD0B00085374617268
:104C500074205461736B00004FF0807212EB400FB0
:104C600098BF12EB410F1DD8AFF3008050EA01024C
:104C700004D488420DD6EFF3008070478142EFF3F1
:104C8000008020F0104038BF40F0004080F30088E2
:104C900070474FF0010238BF022A68BF002AEFF3C5
:104CA000008070471CF4502F00F0828000F00FBC91
:104CB00090EA010F48BF81F0004100F10883421AD9
:104CC0003CBF801A89184FEAD0524FF07F4C1CEA43
:104CD000410FA2EBD15318BF9CEA026F00F0408055
:104CE0004FF0004C4CEA00204CEA012121FA03FC71
:104CF00010EB0C0C23D202F1FF325FEA1C2040EBD8
:104D0000C25038BF70471CF07F0F4FEA400C18BFED
:104D1000BCF17F4F38BF7047C3F12003994008BFF3
:104D200020F00100BCF17F4F38BF7047A0F1C040B8
:104D30004FF0FF0141EAD0514FEAC15070474FEAAE
:104D40003C00000A40EBC25028BF1CF0FF0F4FEAA6
:104D5000400CE1D018BFBCF17F4F38BF7047E5E78A
:104D60009CEA026F05D010EA5C0F08BF00F000401B
:104D70007047BCEB410F4FEA400228BF9445DFF873
:104D800028C0C0F01580AFF30080B2EB410F05D012
:104D900012F1807F08BF70470846704790EA010F04
:104DA00058BF704701487047010000040000C07FF1
:104DB000014800F05ABB00000000C07F014800F02D
:104DC00054BB00000000C07F4FF47F0C1CEAD012DF
:104DD0001EBF1CEAD11392EA0C0F93EA0C0F00F0ED
:104DE000A58090EA010F48BF42F4807240F4000CA5
:104DF00041F400002CF07F4120F07F4000B581425B
:104E0000A2EB03020FF2401CACEB504EC0F10000CD
:104E10009EF800E04FEA4E0E00FB0EFC38BF490042
:104E20004FEA2C1C02F5FA020CFB0EF34FEACE1EE1
:104E30004FEA112C4FEAC1210EEB635E0EFB0CFC16
:104E40004FEA1C5300FB03114FEA112C4FEA0131CA
:104E50000EFB0CFC02F4807E42EB22424FEADC4C5B
:104E600000FB0C11C14228BF09184CEB0333012988
:104E700024BF4EF0020E4EF0804E10EB410F24BFC7
:104E80004EF0010E4EF0804E08BF4EF0040E4EF074
:104E900008015DF804EB43EBC25018BFB2F57C0F7C
:104EA00038BF704741EAC07108BF20F00100B2F579
:104EB0007C0F38BF704729D512F0F00F1CBF00F1EE
:104EC000C04000F00040704700818283848586875F
:104ED00088898B8C8D8E8F919293959697999A9CB9
:104EE0009D9FA0A2A3A5A7A8AAACAEB0B2B3B5B728
:104EF000B9BCBEC0C2C5C7C9CCCED1D4D7D9DCDFFE
:104F0000E2E6E9ECF0F3F7FAFE0000004FEA400CAD
:104F10000CF1807CBCF17E4F28BF7047B0F1C040DF
:104F20004FF07F404CBF40104008704790EA010F9F
:104F30000CEAD11348BF42F48072624538BF634522
:104F400007D213F47F0F23D080EA010000F0004065
:104F500070474FF0807C1CEB400F98BF1CEB410F5B
:104F6000DFF840C03FF624AFAFF300804FF0807C05
:104F70001CEB400F02BF1CEB410F0B4870471CEBB2
:104F8000410F0CBF002020F0004040EAC2507047A3
:104F900012F47F0F04BF0448704742F0FF004FEA4D
:104FA000C0507047040000040000C07F50EA010CAC
:104FB00000F113801CF5000F58BFBCF5000F01D4A1
:104FC0008842704707D710F5000F58BF11F5000F42
:104FD00015D488427047894270471CF5000F04D5EC
:104FE000BCF5000FF7D5814270474FF0807C1CEB79
:104FF000400F38BF1CEB410F01D281427047DFF8F0
:1050000008C0FFF729BE000009001204C2154FEACC
:10501000002318BF43F0004305D4D2F19E020AD307
:1050200023FA02F070474FEA4001B1F1FE4F02D27D
:105030004FF000007047DFF828C04FEA4001B1F19F
:105040007F4F88BF4CF4803C3FF6B8AE1CBF6FEA80
:10505000E0707047AFF300806FEAE07070470000C7
:105060006800020410F0004218BF404242F0804243
:10507000B0FA80F18840A2EBC15202F1786208BF19
:105080007047410642EB202018BF5FF0806C28BFBC
:1050900020F0010070474FF08042FFF7E9BF0000A9
:1050A00050EA010C00F113801CF5000F58BFBCF54D
:1050B000000F01D48842704707D710F5000F58BF82
:1050C00011F5000F15D488427047894270471CF5CE
:1050D000000F04D5BCF5000FF7D5814270474FF0A3
:1050E000807C1CEB400F38BF1CEB410F01D281428A
:1050F0007047DFF808C0FFF7AFBD000009001604D5
:105100004FF47F0C1CEAD0121EBF1CEAD11392EAA6
:105110000C0F93EA0C0F00F04A8090EA010F48BF91
:1051200042F480724FF0004C4CEA00204CEA01211E
:105130001A44A0FB01C3A2F50002BCF1000F18BF86
:1051400043F0010302F4807CB3F1004F38BF5B00F1
:1051500042EB2242180A40EBC25028BF13F07F0FE7
:1051600018BFB2F57C0F38BF704708BF20F00100B0
:10517000B2F57C0F38BF70470BD582F0FF0212F5F5
:10518000803FC8BF704700F1C040D8BF00F000406A
:10519000704700F5000C5FEA4C0C48BF7047B0F157
:1051A000C0404FF07F404CBF40104008704790EA2D
:1051B000010F0CEAD11348BF42F48072624538BF38
:1051C000634504D280EA010000F0004070474FF0D0
:1051D000807C1CEB400F98BF1CEB410F4FF0030C81
:1051E0004CF0806C3FF6E4ADAFF3008012F47F0F1B
:1051F0001FBF13F47F0F42F0FF02D0057047014834
:10520000704700000000C07F10B412F47F0F4FEA17
:1052100000204FEA012110D1B0FA80F400FA04F026
:10522000A2EB044213F47F0F02F5803218BF41F065
:10523000004100D010BC18BF604740F00040B1FAF8
:1052400081F401FA04F1A3EB044310BC03F58033AD
:105250006047000051EA000C00F113801CF5000FBC
:1052600058BFBCF5000F01D48142704707D711F534
:10527000000F58BF10F5000F15D4814270478942C6
:1052800070471CF5000F04D5BCF5000FF7D5884218
:1052900070474FF0807C1CEB410F38BF1CEB400F78
:1052A00001D28842704781EA000080EA0101DFF8FC
:1052B0000CC081EA0000FFF7CFBC00000900160413
:1052C00090EA010F48BF81F000413FF5F8AC421A67
:1052D0003EBF82F00042801A89184FEAD0524FF048
:1052E0007F4C1CEA410FA2EBD15318BF9CEA026F1E
:1052F0004FD04FF0004C4CEA00204CEA012121FA3B
:1053000003FCB0EB0C0C0FD412F0FE0F18BF5FEAD9
:105310004C001DD5001240EBC25038BF70471CF046
:105320003F0F18BF70470BE0A2F101025FEA1C209B
:1053300040EBC25038BF70471CF07F0F18BF70475A
:10534000C3F12003994014BF401E20F001007047B4
:105350004FEA122316D0004204BF002070474FEAE4
:105360009000B0FA80FCA2EB0C02CCF1280C60FAA1
:105370000CF093EA122F04BF00EBC25070474FEAC3
:10538000C37070475FEADC1008BF70474FEAC37014
:1053900070479CEA026F04D010EA5C0F08BF00203F
:1053A0007047BCEB410F4FEA400228BF9445DFF83D
:1053B0002CC0FFF4FDACAFF30080B2EB410F06D080
:1053C00012F1807F08BF704781F00040704790EA7B
:1053D000010F48BF704702487047000002000004F8
:1053E0000000C07F00F0004343EAD05323F48073F1
:1053F000C3F1C10323F0004117291FD8C3F12003D3
:1054000010FA03F1C3F1200320F07F4040F40000C4
:1054100020FA03F003F0004340EA03000DD00B46EE
:10542000590009D318BF401C06D17FEAE27398BF28
:10543000401C38BF20F0010070477047182903EB6B
:10544000912318BF6FF00041013168BF03F00040A5
:1054500009D6400203F0004000F1010004BF12F041
:10546000004F20F00100704770470CF00F03092B2C
:1054700008BF082000F02B800A2B0BD0082B18BF88
:10548000704708BF1CF0400F0AD04FF000004FF0EB
:10549000000170471CF0400F18BF4FF000407047EC
:1054A0001CF0100F08D020F0704300F07F4242EA59
:1054B000D3014FEA4370704700F0604021F07F4213
:1054C00042EA000201F07F4040EA727070471CF42B
:1054D000801F11D01CF4E02F03D06FEACC314900BB
:1054E00070474FF04050EFF3008222F0704242EAE2
:1054F000000282F3008870474FF000007047000000
:105500004A616E4665624D61724170724D61794AC1
:10551000756E4A756C4175675365704F63744E6F55
:1055200076446563010000007856341201001700CC
:105530000100180028020100010010001400020000
:10554000050001003F0001000100050001001800F6
:1055500078000100040001000400180008000100A8
:1055600004000100010001002000010019000100F9
:105570000100400001000100010040005800D00778
:105580000100230101001000010008000A002800AA
:1055900080020800400082120000010002000100A9
:1055A00003000100020001000400010002000100EC
:1055B00003000100020001000500010002000100DB
:1055C00003000100020001000400010002000100CC
:1055D00003000100020001000600010002000100BA
:1055E00003000100020001000400010002000100AC
:1055F000030001000200010005000100020001009B
:10560000030001000200010004000100020001008B
:105610000300010002000100070001000200010078
:10562000030001000200010004000100020001006B
:10563000030001000200010005000100020001005A
:10564000030001000200010004000100020001004B
:105650000300010002000100060001000200010039
:10566000030001000200010004000100020001002B
:10567000030001000200010005000100020001001A
:10568000030001000200010004000100020001000B
:105690000300010002000100B856000800000020CD
:1056A000940100006C01000870570008940100206C
:1056B0000C380000C8010008011C1A0A02031C0172
:1056C000011022AF066D4FC6CBEB0EEFCFF560B6E3
:1056D000F263D3D770F7F3EEE3A967E9E8080401B2
:1056E000CC638C23300E77C795E697171020803354
:1056F000C631C4121D12261231123E124F1264120C
:105700007D129B12BF12EA100D1B0155019801E397
:105710000139029702101A037203ED036F04F804B3
:1057200087051906AE064307D7076808F5087D09FF
:10573000101E0A640A0F0B6E0BC40B1F0C800CE7C3
:105740000C550DCB0D490ED10E620FFC0FFE0F0252
:105750002210AAFF0101112D0102030404300906E1
:1057600007080902040608ACA24A041E291A0164AB
:0400000508000131BD
:00000001FF
