:020000040800F2
:10000000A0390020310200084D1E000881120008AE
:10001000491E0008F10C00087547000800000000A8
:10002000000000000000000000000000AF390008E0
:10003000A90E000800000000B3020008C13A000841
:100040004B0200084B0200084B0200084B0200085C
:100050004B0200084B020008AB0E00084B020008E0
:100060004B0200084B0200084B0200084B0200083C
:100070004B0200084B0200084B0200084B0200082C
:100080004B0200084B0200084B0200084B0200081C
:100090004B0200084B0200084B020008AF0E00089C
:1000A000493B00089D3B00088D3B00084D3B000884
:1000B0004B020008A13B0008E13B00084B0200088E
:1000C0004B0200084B0200084B0200084B020008DC
:1000D0004B020008254400080545000807450008B4
:1000E000AD0E00084B0200084B0200084B0200084E
:1000F0004B0200084B0200084B0200084B020008AC
:100100004B0200084B0200084B0200084B0200089B
:100110004B0200084B0200084B0200084B0200088B
:100120004B0200084B0200084B0200084B0200087B
:1001300000F002F800F05CF80AA090E8000C82449D
:100140008344AAF10107DA4501D100F051F8AFF27A
:10015000090EBAE80F0013F0010F18BFFB1A43F0A5
:100160000103184710530000305300000A444FF0B9
:10017000000C10F8013B13F0070408BF10F8014B06
:100180001D1108BF10F8015B641E05D010F8016B4B
:10019000641E01F8016BF9D113F0080F1EBF10F8AF
:1001A000014BAD1C0C1B09D16D1E58BF01F801CBD2
:1001B000FAD505E014F8016B01F8016B6D1EF9D555
:1001C0009142D6D37047000000230024002500266A
:1001D000103A28BF78C1FBD8520728BF30C148BFAA
:1001E0000B6070471FB504F0C6FF1FBD10B510BDF2
:1001F00000F058F91146FFF7F5FF04F0E1FC00F0BC
:1002000076F903B4FFF7F2FF03BC00F07BF90000BE
:10021000EFF30980704780F309887047EFF3088097
:10022000704780F30888704740BA7047C0BA70477B
:100230000948804709480047FEE7FEE7FEE7FEE77A
:10024000FEE7FEE7FEE7FEE7FEE7FEE704480549B6
:10025000054A064B70470000E93A000831010008E2
:10026000A0330020A0390020A0350020A0350020B8
:10027000EFF3108072B6704780F3108870471D4806
:100280004FF0FF010170002080F309881A48012116
:1002900001701A484FF08051016062B6FEE71748BE
:1002A0004FF080510160704714484FF08051016059
:1002B000704772B6EFF3098028B1203880E8F00F5C
:1002C0000F490968086000B50E4880475DF804EBE7
:1002D0000D480E490A78027009480D490A68026003
:1002E000106890E8F00F203080F309884EF0040E7B
:1002F00062B6704722ED00E05A01002004ED00E0F4
:1003000060010020C12700084F010020500100209B
:100310006801002072B6704762B67047EFF3108034
:1003200072B6704780F310887047B0FA80F070475B
:1003300090FAA0F0704730BF704720BF704700228E
:10034000028042808280704770B503460C46164694
:1003500031462046FFF7F3FF002502E00020585504
:100360006D1CB542FAD370BD30B504466088A588CF
:10037000A84201D1208878B960880B5460889042E7
:1003800003D26088401C608001E0002060802088EB
:10039000401C2080012030BD0020FCE730B5044621
:1003A0002088002816DDA088085C1870A08890427C
:1003B00003D2A088401CA08001E00020A0802088FB
:1003C000401E2080A0886588A84201D1002020809E
:1003D000012030BD0020FCE740EA010310B59B0777
:1003E0000FD1042A0DD310C808C9121F9C42F8D09F
:1003F00020BA19BA884201D9012010BD4FF0FF3050
:1004000010BD1AB1D30703D0521C07E0002010BD65
:1004100010F8013B11F8014B1B1B07D110F8013BF1
:1004200011F8014B1B1B01D1921EF1D1184610BDD2
:1004300010B5203AC0F00B80B1E81850203AA0E87F
:100440001850B1E81850A0E81850BFF4F5AF5FEAB3
:10045000027C24BFB1E81850A0E8185044BF18C966
:1004600018C0BDE810405FEA827C24BF51F8043B0D
:1004700040F8043B08BF7047D20728BF31F8023B61
:1004800048BF11F8012B28BF20F8023B48BF00F8F5
:10049000012B704770477047704700000048704755
:1004A0003C3300207546FFF7F9FFAE46050069466C
:1004B000534620F00700854618B020B5FFF7C6FE6A
:1004C000BDE820404FF000064FF000074FF0000855
:1004D0004FF0000B21F00701AC46ACE8C009ACE8D6
:1004E000C009ACE8C009ACE8C0098D4670470446B5
:1004F000AFF300802046FFF784FE000000487047FD
:100500004033002001491820ABBEFEE72600020060
:10051000704721B1826842F00102826003E0826884
:1005200022F001028260704710B503F045F900F037
:10053000BFFC424800F0F4FB414842490860424891
:100540004860002088602420C86000200861802066
:100550004861400088618000C86120200862000274
:10056000486200208862354800F080FC0121334851
:1005700000F0C9FB0020354908600120087148716E
:100580004FF4602088600020C860062008742C4862
:100590004C3800F07DF807230122102128484C3800
:1005A00000F09EF807230222002125484C3800F075
:1005B00097F807230322012121484C3800F090F8D6
:1005C0000723042202211E484C3800F089F8072333
:1005D000052203211A484C3800F082F8072306222E
:1005E000042117484C3800F07BF8012114484C389E
:1005F00000F02EF8012000F0E5F8012110484C38F9
:10060000FFF787FF0E484C3800F0C6F800BF0C48D3
:100610004C3800F032F80028F9D109484C3800F085
:10062000CBF800BF06484C3800F01DF80028F9D17F
:10063000012103484C3800F0B4F810BD0800024016
:100640004C240140BC1F0020E81F0020A81F0020F0
:1006500021B1826842F48072826003E0826822F4F1
:10066000807282607047014600208A6812F0040F91
:1006700001D0012000E000207047014600208A6878
:1006800012F0080F01D0012000E0002070470000A8
:1006900030B502460020002350680F4C20400D79F1
:1006A0000C6844EA05242043506090680B4C2040BD
:1006B000D1E902542C434D7944EA4504204390602B
:1006C000D06A20F470000C7C641EE4B2234340EA3C
:1006D0000350D06230BD0000FFFEF0FFFDF7F1FFD8
:1006E000F0B504460D4600200021092D11DDE0681B
:1006F000A5F10A0606EB4607072606FA07F1884326
:10070000A5F10A0606EB460603FA06F10843E06087
:100710000CE0206905EB4507072606FA07F1884338
:1007200005EB450603FA06F108432061072A0FDAB4
:10073000606B561E06EB86071F2606FA07F18843F4
:10074000561E06EB860605FA06F10843606322E0B2
:100750000D2A0FDA206BD61F06EB86071F2606FA36
:1007600007F18843D61F06EB860605FA06F1084313
:10077000206310E0E06AA2F10D0606EB86071F2653
:1007800006FA07F18843A2F10D0606EB860605FA84
:1007900006F10843E062F0BD816841F00801816024
:1007A000704721B1826842F4A002826003E082684F
:1007B00022F4A00282607047816841F004018160E8
:1007C0007047000030B10749096841F40001054A4B
:1007D000116005E00349096821F40001014A116034
:1007E000704700000824014010B5002016E00022E8
:1007F000002109E001EB41030A4C04EB830333F8C9
:1008000010301A444B1CD9B20629F3DB0623B2FB85
:10081000F3F3054C24F81030431CD8B20628E6DB6D
:1008200010BD0000E81F00203020002010B50C880B
:100830009C4203DA0C88641C0C8001E000240C80CC
:100840000C8820F8142010BD00B587B09DF8180062
:100850000690002001F0DEFC7F490860002001F0D6
:10086000D9FC7E490860012001F0D4FC7C49086075
:10087000012001F0CFFC7B49086003200021E82221
:10088000794BCDE90132CDE9031032200346774A96
:100890000090774801F0E4FD0690032000215622E5
:1008A000744BCDE90132CDE9031028200346724A8A
:1008B0000090724801F0D4FD069003200021C4226C
:1008C0006F4BCDE90132CDE90310212003466D4A7B
:1008D00000906D4801F0C4FD069003200021C42261
:1008E0006A4BCDE90132CDE9031020200346684A66
:1008F0000090684801F0B4FD069003200021C42256
:10090000654BCDE90132CDE903102A200346634A45
:100910000090634801F0A4FD069003200021782296
:10092000604BCDE90132CDE903102D2003465E4A2C
:1009300000905E4801F094FD069003200021BE2245
:100940005B4BCDE90132CDE903102E200346594A15
:100950000090594801F084FD069003200021642294
:10096000564BCDE90132CDE9031035200346544AF8
:100970000090544801F074FD06900320002152229B
:10098000514BCDE90132CDE90310342003464F4AE3
:1009900000904F4801F064FD0690032000217A2268
:1009A0004C4BCDE90132CDE90310262003464A4ADB
:1009B00000904A4801F054FD0690032000218C224B
:1009C000474BCDE90132CDE9031027200346454AC4
:1009D0000090454801F044FD069006AA43A1382046
:1009E00001F0A8FD06AA43A1282001F0A3FD06AA54
:1009F00043A1202001F09EFD06AA44A1212001F080
:100A000099FD06AA43A1322001F094FD06AA43A154
:100A10002D2001F08FFD06AA43A12A2001F08AFDB6
:100A200006AA44A1352001F085FD06AA44A12E2086
:100A300001F080FD06AA45A1342001F07BFD06AA45
:100A400045A1262001F076FD06AA46A1272001F047
:100A500071FD07B000BD0000240000202800002028
:100A60002C00002030000020B80E0020541200207E
:100A7000BD3E0008800B0020D40C00204D3E000835
:100A8000700800207C0B00207D40000860050020DD
:100A90006C0800202D430008581200206415002027
:100AA0005D3F0008D80C0020B40E0020E54100088E
:100AB000F8160020EC190020393E000868150020C7
:100AC000F416002001420008F0190020341B002019
:100AD00005430008381B00201C1D0020454100086C
:100AE000201D00204C1F0020614000084D7954411A
:100AF000534B00005461736B4576656E74000000C3
:100B00005461736B56697250776D00005461736B5A
:100B100052706D005461736B4B6579005461736B57
:100B200053617665000000005461736B4D6561731D
:100B3000757265005461736B5374617475000000C5
:100B40005461736B41766572616765005461736BC4
:100B500054696D656F7574005461736B52756E697D
:100B60006E6700005461736B4D6F646275730000B3
:100B700070477047704700004FF4C06001F0A2F961
:100B800002F074F8322300221146104601F05CFE98
:100B900000F0DAFB00214FF4614000F04FFC0AA0A6
:100BA00002F006FF01F030FCFFF74EFE0A230022A0
:100BB0001146104601F048FE00BF002305221946E9
:100BC000184601F041FEF8E75541525431204F4B91
:100BD0000D0A000070477047704700BF612803DBB3
:100BE000A0F15701C8B208E0392803DDA0F13701B0
:100BF000C8B202E0A0F13001C8B200F00F007047A7
:100C000030B58FB00522694624A002F087FD044666
:100C1000012000F037FB0DF80400601CC4B22C204A
:100C20000DF80400601CC4B21E490968086904F08C
:100C30005BF985B20DEB04031BA229461BA001F052
:100C4000A3F82044C4B217490968486904F04CF974
:100C500085B20DEB040314A2294615A001F094F807
:100C60002044C4B20F490968886904F03DF985B28F
:100C70000DEB04030CA229460EA001F085F82044D8
:100C8000C4B20DEB040105220BA002F047FD204485
:100C9000C4B2684603F070FD0FB030BD2645542C39
:100CA00000000000100000202C00000050783D00E3
:100CB00049783D0044783D000D0A00000348008853
:100CC00040F001000149088070470000346C00408A
:100CD00001460022014A0A4410887047006C004017
:100CE0000022024A0244116070470000006C00407C
:100CF00000BFFEE718B10B7813430B7002E00B78CE
:100D000093430B70704721B1026842F00102026008
:100D100004E002684FF6FE731A400260704700005C
:100D200001684FF6FE7211400160002101604160D0
:100D30008160C1604B49884208D14A4908394968F5
:100D400041F00F01474A083A51608AE045491431A1
:100D5000884208D143490839496841F0F001414AC5
:100D6000083A51607DE03F492831884208D13D4929
:100D70000839496841F470613A4A083A516070E0B4
:100D800038493C31884208D136490839496841F42C
:100D90007041344A083A516063E032495031884228
:100DA00008D130490839496841F470212D4A083A80
:100DB000516056E02B496431884208D129490839ED
:100DC000496841F47001274A083A516049E02549D1
:100DD0007831884208D123490839496841F0706167
:100DE000204A083A51603CE01F49884206D1011F61
:100DF000096841F00F01021F116032E01A491431F5
:100E0000884208D11849091F096841F0F001164AC3
:100E1000121F116025E014492831884208D1124977
:100E2000091F096841F470610F4A121F116018E030
:100E30000D493C31884208D10B49091F096841F42A
:100E40007041094A121F11600BE007495031884276
:100E500007D10549091F096841F47021024A121F90
:100E600011607047080002400804024010B50022DB
:100E7000026847F6F0739A430C6A8B6823430C6947
:100E800023434C6923438C692343CC6923434C6A35
:100E900023438C6A23431A430260CB6843600B6888
:100EA00083604B68C36010BD7047704770477047E0
:100EB00008B51F20ADF8000000208DF8030069463A
:100EC000014800F04BF808BD0008014008B50121B9
:100ED000052002F061FC4FF48070ADF800000320A3
:100EE0008DF8020018208DF803006946074800F0CD
:100EF00035F84FF48050ADF8000048208DF803001D
:100F00006946024800F02AF808BD000000080140C8
:100F100008B50121080302F03FFC0121084602F058
:100F20003BFCA020ADF8000003208DF80200182043
:100F30008DF803006946084800F010F84020ADF82D
:100F4000000003208DF8020010208DF80300694690
:100F5000014800F003F808BD000801402DE9F04108
:100F6000024600250026002000230024002791F8D7
:100F700003C00CF00F0591F803C01CF0100F03D054
:100F800091F802C04CEA0505B1F800C01CF0FF0F53
:100F900031D0146800202BE04FF0010C0CFA00F364
:100FA000B1F800C00CEA03069E4220D183004FF046
:100FB0000F0C0CFA03F7BC4305FA03FC4CEA0404DB
:100FC00091F803C0BCF1280F06D14FF0010C0CFAC8
:100FD00000FCC2F814C00AE091F803C0BCF1480F4D
:100FE00005D14FF0010C0CFA00FCC2F810C0401CF7
:100FF0000828D1D31460B1F800C0BCF1FF0F34DD74
:10100000546800202EE000F1080C4FF0010808FAA7
:101010000CF3B1F800C00CEA03069E4221D1830014
:101020004FF00F0C0CFA03F7BC4305FA03FC4CEA33
:10103000040491F803C0BCF1280F05D100F1080C9D
:1010400008FA0CF8C2F8148091F803C0BCF1480FFC
:1010500007D100F1080C4FF0010808FA0CF8C2F8AB
:101060001080401C0828CED35460BDE8F0810000F9
:10107000F0B50A46002300240021002500F00046B8
:10108000B6F1004F02D11D4EF16901E01B4E7168AF
:10109000C0F3034583B200F44016B6F5401F08D1F3
:1010A00021F07061154E766826F07066134F7E60F1
:1010B00012E000F48016B6F5801F06D1032606FA6A
:1010C00005F4A14341F0706106E0460D360103FAD4
:1010D00006F6B14341F0706122B1460D360103FAC4
:1010E00006F6314300F00046B6F1004F02D1034E40
:1010F000F16101E0014E7160F0BD000000000140AF
:101100000246002093680B4201D0012000E000203D
:10111000704741617047016170472DE9F041054614
:101120000F4614462146284600F004F8064630468D
:10113000BDE8F08130B503460024002204E033F816
:1011400012502C44551CAAB28A42F8DBB4FBF1F5CC
:10115000A8B230BD30B58DB037A207CA0AAB07C3FD
:101160002422384901A8FFF763F900259DF82D00D6
:10117000202810D19DF83000FFF72FFD324900FBE9
:1011800001F49DF83100FFF728FD40F2712148433A
:1011900004EB00140FE09DF83100FFF71EFD2A4913
:1011A00000FB01F49DF83200FFF717FD40F27121BA
:1011B000484304EB0014002521E005EB450101AA9A
:1011C000881803220AA9FFF707F9B0B9681C0A2199
:1011D00090FBF1F000EB4001C1EBC01004EBC00448
:1011E000681C0A2190FBF1F201FB120000EBC00128
:1011F00001EB001004EB800403E0681CC5B20C2D69
:10120000DBDB00BF9DF82D00202805D19DF82C00C8
:10121000FFF7E3FC04440CE09DF82C00FFF7DDFC35
:1012200000EB800004EB40049DF82D00FFF7D5FC97
:10123000044420460DB030BD4A756E20323720324E
:1012400030313900DC520008A086010010B5FFF7EC
:10125000CBFA0948008840F2E261081A00EB8000EE
:10126000400040F6E441484344F2CC4190FBF1F0A9
:10127000FA300249088010BD302000206A1F00208B
:1012800000BFFEE700F00F00092806DDA0F10A010B
:10129000C8B200F14101C8B202E000F13001C8B2A9
:1012A0007047000010B5044640210748FFF731FFA2
:1012B000204602F037FB022001F086FA4021024866
:1012C000FFF729FF10BD00000008014070B505467A
:1012D0000E4640210B48FFF71CFF4FF4204405F059
:1012E0001F0044EAC01406F00F0044EAC004204680
:1012F00002F018FB022001F067FA40210148FFF7D5
:101300000AFF70BD0008014010B540210D48FFF7ED
:1013100002FF48F22050FFF7C5FF4FF40340FFF7EC
:10132000C1FF4FF40040FFF7BDFF48F2A000FFF7F8
:10133000B9FF48F22000FFF7B5FF48F26000FFF761
:10134000B1FF10BD0008014008B54FF6FF713748E6
:10135000FFF7E1FE0121042002F01EFA012108201E
:1013600002F01AFA0121084602F016FA0121880358
:1013700002F012FA01212E48FFF77AFE2D4840684C
:1013800020F020002B4948604FF40070ADF80000B9
:1013900003208DF8020018208DF8030069462348C9
:1013A000FFF7DCFD4FF48060ADF8000048208DF8B9
:1013B000030069461D48FFF7D1FD03208DF80200A8
:1013C00010208DF80300C001ADF8000069461748F1
:1013D000FFF7C4FD4FF40040ADF800006946134824
:1013E000FFF7BCFD0120ADF8000069461248FFF789
:1013F000B5FD0220ADF8000069460F48FFF7AEFDCD
:1014000003208DF8020014208DF803000820ADF8A9
:10141000000069460848FFF7A1FD1020ADF8000064
:1014200069460548FFF79AFD08BD00000008014025
:1014300000023000002004E0000C014030B585B00F
:1014400005460C460121880302F0A6F9019500200B
:10145000ADF80800ADF80A00ADF80C40ADF810008A
:101460000C20ADF80E0001A90F4803F0B7F80121D8
:101470000D4803F058F825208DF8000002208DF863
:10148000020001208DF80300684600F0E1FC03F043
:101490001BF903F027F8012240F22551024803F01E
:1014A00078F805B030BD0000003801402DE9F04368
:1014B00006460D4D2946304603F0CAF9044635F874
:1014C000147005EB4400B0F80290F01B00EB8000B4
:1014D000A9EB070190FBF1F0052101FB04001FFAC5
:1014E00080F84046BDE8F0837000002010B501216F
:1014F0004FF0C05002F040F9012002F0F7F8FFF77A
:10150000DDFB0820FFF7E4FB044600210820FFF77D
:10151000E7FB162C00D010BD024800F005F800BF14
:10152000F9E7000000F0FF1F70B50446266830465A
:10153000FEF777FE201D40F00105A84770BD0000B2
:101540001CB504462C484079A04202D02A48447178
:101550001CBD2948807928494979884204D0264809
:10156000407925498871F3E72348C0792249897970
:10157000884204D0204880791F49C871E8E71E4896
:1015800040791D490871084601680091406801468C
:101590000190009800F0ACF91748C0781649097915
:1015A000884208D0144800791349C8700020487058
:1015B000887008701DE010480078FE2804DA0E4894
:1015C0000078401C0C4908700B48007988B10A4823
:1015D0004078FE2804DA08484078401C06494870E4
:1015E00005488078FE2804DA03488078401C0249C8
:1015F000887000BFACE70000CC00002070B5044646
:101600000025012000F07EFB14F0010F03D008211B
:10161000B548FFF77EFD14F0020F03D01021B24849
:10162000FFF777FD0320B14988701020C870202093
:101630000880AD48FFF792FC2021AB48FFF76BFD17
:101640000320AA4988701020C87040200880A6484E
:10165000FFF784FC4021A448FFF75BFD0320A3496A
:1016600088701020C870802008809F48FFF776FCA3
:1016700080219D48FFF74DFD022001F0A5F80220D2
:1016800001F0A2F8022001F09FF804209749C870E9
:10169000402008809448FFF761FC04209349C870FB
:1016A000802008809048FFF759FC03208F498870FC
:1016B0001020C870202008808B48FFF74FFC2021A5
:1016C0008948FFF726FD002000F01CFB0821864812
:1016D000FFF716FD08B945F0010510218248FFF714
:1016E0000FFD08B945F00205012000F00BFB14F0D6
:1016F000040F03D008217C48FFF70BFD14F0080FFE
:1017000003D010217848FFF704FD03207749887043
:101710001020C870402008807348FFF71FFC40214C
:101720007148FFF7F8FC0320704988701020C870DA
:10173000202008806C48FFF711FC20216A48FFF741
:10174000E8FC0320694988701020C8708020088058
:101750006548FFF703FC80216348FFF7DAFC0220AD
:1017600001F032F8022001F02FF8022001F02CF8ED
:1017700004205E49C870802008805B48FFF7EEFBBC
:1017800004205A49C870202008805748FFF7E6FB1C
:101790000320564988701020C870402008805248A5
:1017A000FFF7DCFB40215048FFF7B3FC002000F0BE
:1017B000A9FA08214C48FFF7A3FC08B945F0040535
:1017C00010214948FFF79CFC08B945F008050120A5
:1017D00000F098FA14F0100F03D008214248FFF7E8
:1017E00098FC14F0200F03D010213F48FFF791FC24
:1017F00003203E4988701020C870802008803A4835
:10180000FFF7ACFB80213848FFF785FC0320374900
:1018100088701020C870402008803348FFF79EFB76
:1018200040213148FFF775FC0320304988701020B3
:10183000C870202008802C48FFF790FB20212A4800
:10184000FFF767FC022000F0BFFF022000F0BCFFA2
:10185000022000F0B9FF04202449C870402008800D
:101860002148FFF77BFB04202049C8702020088016
:101870001D48FFF773FB03201C4988701020C870B7
:10188000802008801848FFF769FB80211648FFF781
:1018900040FC002000F036FA08211348FFF730FC26
:1018A00008B945F0100510210F48FFF729FC08B9C9
:1018B00045F0200504200D49C870802008800A48A2
:1018C000FFF74CFB04200949C870402008800648F7
:1018D000FFF744FB04200549C87020200880024817
:1018E000FFF73CFB284670BD000C0140E4000020DF
:1018F00013B59DF80400082812D006DC012809D091
:10190000022810D004284CD107E010280FD020283E
:1019100047D126E003F088F843E002F0CFFF40E033
:1019200003F028F83DE000201F49087039E01F4807
:1019300000791E49C978884212D000201C4988715C
:101940000846C07C40B9642000F03EFF002002F051
:10195000A7F8642000F038FF012015494875C874C5
:101960001FE012484078032803D1012002F098F8C4
:1019700016E00E48407832280DDB01200C49C8746F
:101980002D20887109484078962809DD084680791D
:10199000401C887104E000200549C87488714875AE
:1019A00000BF00BF1CBD00006E000020CC00002066
:1019B000501F002010B504465648007807287BD2F7
:1019C000DFE800F00423355B82838400042252495F
:1019D0000020FFF78FF901224F49491C0020FFF733
:1019E00089F908224C49491E0020FFF783F94B4929
:1019F000C8884949091F00F099F848498988C8B240
:101A00004549091F00F0E0F862E004224249012044
:101A1000FFF770F901224049491C0020FFF76AF9DD
:101A200008223D49491E0020FFF764F950E00422D6
:101A300039490020FFF75EF901223749491C104659
:101A4000FFF758F908223449491E0020FFF752F9E0
:101A500014F0010F05D13049091F31A000F0E2F860
:101A600005E0304908892C49091F00F05FF82A4930
:101A7000091F2DA000F010F92AE0042226490020B9
:101A8000FFF738F901222449491C0020FFF732F9F9
:101A900008222149491E0120FFF72CF91E49091F80
:101AA0001FA000F0BFF814F0010F06D11A49091F5A
:101AB0001DA000F0F1F806E009E01A49887A1649FD
:101AC000091F00F081F803E002E001E000E000BF40
:101AD00000BF1448407D30B901220F490831002071
:101AE000FFF708F905E001220B4908311046FFF71E
:101AF00001F90C48C07C30B90422074908310020A4
:101B0000FFF7F8F805E00422034908310120FFF748
:101B1000F1F810BD6E000020F00000206A1F0020C8
:101B20006E6E6E00501F00206E6E000030B50246D3
:101B3000491DB2F57A7F01DB40F2E732642392FB64
:101B4000F3F30A2493FBF4F504FB15331D4CE05C1E
:101B50000B7803F001030B700B78FE2404EA2014C9
:101B600023430B7000F00F034B700A2392FBF3F337
:101B70000A2493FBF4F504FB1533124CE05C8B78DC
:101B800003F001038B708B78FE2404EA20142343B6
:101B90008B7000F00F03CB700A2392FBF3F403FB6E
:101BA0001423084CE05C0B7903F001030B710B79F3
:101BB000FE2404EA201423430B7100F00F034B7141
:101BC00030BD00003E00002030B5632800DD6320FA
:101BD0000A2390FBF3F30A2493FBF4F504FB15337B
:101BE0000F4CE25C13118B70CB7803F00803CB70C1
:101BF000CB7802F007042343CB700A2390FBF3F465
:101C000003FB1403064CE25C13110B704B7803F0DA
:101C100008034B704B7802F0070423434B7030BD30
:101C20004800002010B50246491D1378613B194C4D
:101C3000E05C0B7803F001030B700B78FE2404EAE0
:101C4000201423430B7000F00F034B705378613B5B
:101C5000104CE05C8B7803F001038B708B78FE24D2
:101C600004EA201423438B7000F00F03CB709378A9
:101C7000613B084CE05C0B7903F001030B710B79BD
:101C8000FE2404EA201423430B7100F00F034B7170
:101C900010BD00005200002010B502461378613BD1
:101CA0000E4CE05C03118B70CB7803F00803CB7013
:101CB000CB7800F007042343CB705378613B074C8B
:101CC000E05C03110B704B7803F008034B704B780A
:101CD00000F0070423434B7010BD0000600000209B
:101CE00010B5002408E00648005D00F00F01204612
:101CF000FFF7ECFA601CC4B20D2CF4DB10BD000041
:101D0000EC00002038B504464CB303208DF80200E7
:101D100010208DF803000820ADF80000694619482E
:101D2000FFF71CF91020ADF8000069461548FFF7D1
:101D300015F92020ADF8000069461248FFF70EF9AA
:101D40004020ADF8000069460E48FFF707F98020F3
:101D5000ADF8000069460B48FFF700F910E0482095
:101D60008DF803000820ADF8000069460548FFF72C
:101D7000F5F81020ADF8000069460248FFF7EEF8CC
:101D800038BD0000000C01402DE9F04180460E46B0
:101D900017461D4614222946404601F0BFFC044662
:101DA00042F2107096FBF0F00A2190FBF1F301FB78
:101DB0001300C2B21046FFF765FA2855601CC4B282
:101DC0004FF47A7096FBF0F00A2190FBF1F301FBDF
:101DD0001300C2B21046FFF755FA2855601CC4B272
:101DE000642096FBF0F00A2190FBF1F301FB130055
:101DF000C2B21046FFF746FA2855601CC4B20A204A
:101E000096FBF0F00A2190FBF1F301FB1300C2B244
:101E10001046FFF737FA2855601CC4B20A2096FB1B
:101E2000F0F100FB1160C2B21046FFF72BFA285503
:101E3000601CC4B229191422384601F06FFC2044FA
:101E4000C4B22046BDE8F08100BFFEE7704770478E
:101E500070B5002100230F22C4780CB3164C2468FF
:101E600004F4E064C4F5E064210AC1F10403CA404B
:101E7000447804FA03F184781440214309010F4C9B
:101E80000678A155047804F01F050124AC400578BC
:101E90006D114FF0E02606EB8505C5F8004109E01D
:101EA000047804F01F050124AC40054D0678761136
:101EB00045F8264070BD00000CED00E000E400E0B5
:101EC00080E100E002490143024A116070470000CE
:101ED0000000FA050CED00E01D481E481E481F4892
:101EE0001F482048204821482148224822482348AA
:101EF000234824482448254825482648264827487A
:101F0000274828482848294829482A482A482B4849
:101F10002B482C482C482D482D482E482E482F4819
:101F20002F483048304831483148324832483348E9
:101F300033483448344835483548364836483748B9
:101F40003748384838483948394800BF704700009A
:101F500000530008045300080A5300080C530008FB
:101F6000085300080E5300081053000812530008CD
:101F70001453000816530008185300081A53000899
:101F80001C5300081E530008205300082253000869
:101F90002453000826530008285300082A53000839
:101FA0002C5300082E530008305300083253000809
:101FB0003453000836530008385300083A530008D9
:101FC0003C5300083E5300084053000842530008A9
:101FD0004453000846530008485300084A53000879
:101FE0004C5300084E530008505300085253000849
:101FF00056530008585300085A5300085C53000811
:102000007C2F0020FC32002060530008625300083F
:102010006453000866530008685300086A530008B8
:102020006C5300086E530008705300085E5300089C
:10203000725300082DE9F04105460E46144600276C
:102040001DB904202070BDE8F08116B90C20207065
:10205000F9E71148007810B112202070F3E72878D2
:10206000012808D0022807D0032802D0042804D170
:1020700000E000BF00BF00BF02E001202070E2E7E7
:1020800000BFFEF7F5F807466E613846FEF7F4F834
:102090000020207000BFD6E74D01002010B500F0F1
:1020A00019F800F053FF00F07BFF00F09BFF00F0F9
:1020B0001DFF00F0EFFE01F02BF801F055F800F0E5
:1020C000D1FF00F0F5FF00F099FC00F009F8FFF7F0
:1020D00003FF10BD00200149088070473001002037
:1020E0007047000010B500241A480078012830D14C
:1020F000FEF7BEF804461848007820B1164800786C
:10210000401E1549087014480078F8B91348007843
:10211000E0B901F08BF812481249097850F8210013
:10212000114908600F4800781049097888420DD09D
:102130000D480068C06B401C0B490968C8630C4817
:102140000068401C0A490860FEF7AEF82046FEF71A
:1021500093F810BD5A0100204D0100204E010020CF
:102160000C25002050010020680100204F010020B4
:102170003401002010B500240B480078012811D14B
:10218000FEF776F804460948007840B90848007818
:10219000FF2804D206480078401C054908702046F4
:1021A000FEF76AF810BD00005A0100204D01002022
:1021B0004E01002010B5002413480078012821D1D9
:1021C000FEF756F8044611480078C0B10F48007871
:1021D000401E0E4908700846007860B90C48007827
:1021E00028B92046FEF748F800F0E6FF0AE020464E
:1021F000FEF742F806E02046FEF73EF802E02046F1
:10220000FEF73AF810BD00005A0100204E010020F0
:102210004D01002070B5054600261048007808B131
:10222000002070BDFEF724F806460D4804680068DB
:1022300020B10B4800684068094908603046FEF745
:102240001BF84CB10320207025810020606005A0A0
:102250006061204600F010FE2046E2E74D010020BC
:10226000380100203F0000002DE9F04105460E46F0
:10227000144600271DB904202070BDE8F08128789D
:10228000032802D001202070F7E73248007810B10F
:1022900002202070F1E73048007810B10D20207046
:1022A000EBE7FDF7E5FF0746288940B12889401E86
:1022B00028813846FDF7E0FF00202070DDE7274841
:1022C000006890F8340040F001002449096881F862
:1022D000340000202149096881F835001F48006852
:1022E0000663284600F086FD3846FDF7C5FF00F07E
:1022F00063FFFDF7BDFF07461848006890F83500FA
:1023000020B1012809D0022806D102E00020207067
:102310000BE00E20207008E000BF29460F4800683F
:1023200000F026FD0A20207000BF00BF00200B49EE
:10233000096881F834000949096881F835000749BE
:102340000968C8610549096808623846FDF794FFC5
:1023500000BF92E74D0100204E01002060010020E7
:1023600070B5044600250CB9042070BD2078032800
:1023700001D00120F9E7FDF77BFF0546A07A60B1A7
:10238000002301221946204600F0A4FC2846FDF750
:1023900073FF00F011FF0020E7E720894FF6FF717F
:1023A000884207D22089401C20812846FDF764FF1F
:1023B0000020DAE72846FDF75FFF3320D5E700006D
:1023C00010B50B48007890B900F030FF094800784C
:1023D0000949087009480749097850F82100084957
:1023E00008600846006807490860FDF748FF10BD0F
:1023F0005A010020500100204F0100200C25002030
:10240000680100206001002010B50024022000F0C7
:10241000DBF9FDF72DFF044600200B49086020463C
:10242000FDF72AFFC82000F0CFF9FDF721FF044691
:1024300005480068054908600120054908702046E4
:10244000FDF71AFF10BD00005C01002044010020D0
:102450004C01002010B504462046FEF789FB10BD54
:102460002DE9F04F85B081468A4693461C46DDE94A
:102470000F78129D002003903F2C03D92A2005B02D
:10248000BDE8F08FFDF7F4FE03902248007820B1FC
:102490000398FDF7F1FE3C20F1E71F4850F82400B7
:1024A00088BB01201C4941F824000398FDF7E4FE95
:1024B0002A464146384600F0E9FF2B465A46514627
:1024C000484600F0CDF804901198CDE900800295BF
:1024D0003A4620460E9B049900F0BEFE064636B9E9
:1024E0000E48007801280CD100F066FE09E0FDF7E7
:1024F000BFFE03900020084941F824000398FDF72F
:10250000BBFE3046BBE7FFE70398FDF7B5FE28208A
:10251000B5E700004D0100200C2500205A010020E5
:1025200010B504462046FEF724FB10BD10B5FEF79B
:1025300021FB10BD2DE9F04105460F4614464FF032
:1025400000083F2D05D9FF2D03D02A202070BDE8BB
:10255000F08117B90C202070F9E71448007810B109
:1025600012202070F3E7FDF783FE8046FF2D03D194
:102570000F48006890F836500E4850F825602EB984
:102580004046FDF779FE43202070E0E7012E05D19B
:102590004046FDF771FE43202070D8E7376540467E
:1025A000FDF76AFE0020207000BFD0E74D0100203B
:1025B000600100200C25002010B5FEF70BFB10BDBC
:1025C0002DE9F04706460C464FF0000A3F2E04D98D
:1025D000FF2E02D02A20BDE8F0870CB90920FAE7C7
:1025E000002020606060FDF743FE8246FF2E03D18D
:1025F0001948006890F83660184850F8265025B9F8
:102600005046FDF739FE4320E5E7012D04D1504641
:10261000FDF732FE4320DEE7288A10F0010F04D1D7
:102620005046FDF729FE4520D5E70027D5F80C9048
:10263000D5F808805046FDF71FFE00E07F1C58F8D3
:10264000041B0029FAD0B8002060A9EB0700800025
:1026500060600020BFE70000600100200C25002022
:1026600070B5044610464FF080750560051F28467A
:102670002C606FF00106051F28462E604FF01236C1
:10268000051F28462E604FF00336051F28462E6092
:102690004FF00236051F28462E607610051F28468B
:1026A0002E60051F284629604FF01136051F284669
:1026B0002E604FF01036051F28462E604FF0093669
:1026C000051F28462E604FF00836051F28462E604D
:1026D0004FF00736051F28462E604FF00636051FBF
:1026E00028462E604FF00536051F28462E604FF015
:1026F0000436051F28462E6070BD00002DE9F0410C
:1027000005464FF000083F2D02D14720BDE8F0817B
:102710003F2D03D3FF2D01D02A20F7E7FDF7A8FDB9
:102720008046FF2D05D12248006890F836500126DA
:1027300008E01F48006890F83600A84201D1012641
:1027400000E000261B4850F8254024B94046FDF71C
:1027500093FD4820DAE7012C04D14046FDF78CFDBB
:102760004320D3E794F838701348C05D94F83910CB
:10277000C943C9B208401049C8550846C05D40B9B0
:1027800094F83A00C043C0B20C49097808400B499C
:10279000087094F8340040F0080084F83400404693
:1027A000FDF76AFD012E01D100F006FD0020ADE726
:1027B000600100200C250020520100205101002062
:1027C00010B5FEF708FA10BD70B505460026194889
:1027D000007800B170BD1848007800B1FAE73DB349
:1027E000FDF746FD06461548006890F83840144845
:1027F000005D1249096891F83910C943C9B208400F
:102800000F4908550846005D50B90C48006890F81B
:102810003A00C043C0B20B49097808400949087022
:102820000648006805633046FDF726FD00F0C4FC4D
:1028300000BFCFE74D0100204E01002060010020C5
:1028400052010020510100202DE9F04107460D46BC
:1028500016461C461B48007810B15520BDE8F08193
:102860001948007808B13220F8E727B91DB916B920
:102870000CB95420F2E73B2D01D95120EEE73B2E55
:1028800001D95220EAE7B4F57A7F01D35320E5E776
:102890004FF4FA6060434FF47A71B0FBF1F14FF4FA
:1028A00061607843C5EB051200EB8200304400EB19
:1028B0004002C2EBC01001EB00184046FFF784FF56
:1028C0000020CBE74D0100204E01002070B500260E
:1028D00000F076F8FDF7CCFC064633480068401C53
:1028E000314908603046FDF7C7FC304800780128C0
:1028F00057D12F48007820B1012804D0022809D1EF
:1029000003E001250BE0002509E00125012028490D
:10291000087004E0012500202549087000BF00BFB1
:1029200005B970BD2348046837E0FDF7A1FC0646F1
:10293000206B70B3206B401E2063206B48BB94F863
:10294000340010F0370F09D014F8340F00F0C8002D
:10295000207001206070A4F1340402E0002084F8AB
:10296000350094F8340010F0080F12D104F1380447
:10297000A0781149097840EA01000F4908702078D1
:102980000E49085C617840EA010014F838190B4AD6
:10299000505464693046FDF76FFC94F836003F28C8
:1029A000C3D100BFBDE700007C0100205A01002018
:1029B000700100206C010020510100205201002014
:1029C00010B5FEF709F907480088401C0549088042
:1029D00008460088C82803D30020088000F004F8C7
:1029E00010BD00003001002010B503480068FFF75B
:1029F000B7FC0446204610BD8C010020F8B54FF40A
:102A00002071284800F07AFB4021274800F076FB2F
:102A1000002514E0681C86B205EB8500214901EB16
:102A2000C00406EB860001EBC00764202070002084
:102A300084F82500E7601DA02062681C85B20F2D78
:102A4000E8D305EB8500174901EBC0046420207032
:102A5000002084F82500E06014A0206200201449C2
:102A60000860144908801020134908800D48134954
:102A700008600120FFF7CEFB114908600020FFF736
:102A8000C9FB104908606A460FA10D480068FFF7AE
:102A9000D1FA6A4611A10B480068FFF7CBFA00F0A3
:102AA00027F8F8BD7C2F0020FC3200203F000000FA
:102AB000840100208201002080010020900100207C
:102AC000880100208C01002075432F4F532D494968
:102AD00020546D724C6F636B0000000075432F4FE4
:102AE000532D494920546D725369676E616C000023
:102AF00000B587B00320002140220A4BCDE9013206
:102B0000CDE903104FF6FD703D23064AFC320090DC
:102B10000548FFF7A5FC06AA04A13D20FFF70AFD22
:102B200007B000BDFC310020A92B000875432F4FD2
:102B3000532D494920546D720000000070B50B46BA
:102B4000032580F82550012B05D1154EC56936683F
:102B5000354445610CE085692DB9114EC56936686B
:102B60003544456104E00E4E85693668354445615B
:102B7000456905F007040B4D05EBC4010D682DB93F
:102B800008600025C56001258D8006E00A680860A0
:102B9000C26010618D886D1C8D800025056170BD3F
:102BA00084010020FC32002008B500BF00BF6A4647
:102BB00000211A480068FFF757FBFFF7DBFA1848B7
:102BC0000068401C164908600846006800F00708C5
:102BD000144800EBC8073C681AE0E66810496069D1
:102BE0000968884213D1204600F01EF894F82400AA
:102BF000022804D101212046FFF7A0FF02E00220B5
:102C000084F82500656815B12046A168A8473446B8
:102C1000002CE2D1FFF7CEFAC9E700008C010020BA
:102C200084010020FC32002030B5456905F007041E
:102C30000D4D05EBC4031D68854205D1C1681960BF
:102C400039B100250D6104E00169C268CA6002B1B2
:102C50001161012580F825500025C56005619D881A
:102C60006D1E9D8030BD0000FC32002030B516483E
:102C700000684FF4FA62B0FBF2F1B1F1807F01D34A
:102C800001201DE021F07F40401E4FF0E022506106
:102C900050170F22002807DA13071D0E0B4B00F008
:102CA0000F04241F1D5503E013071C0E084B1C5472
:102CB00000BF00204FF0E02290610720106100204B
:102CC00008B100BFFEE730BD1C01002018ED00E098
:102CD00000E400E02DE9F04F05460F469046994686
:102CE000A87A1F490E5C05F10B00805D11F800B059
:102CF0000BEBC60000F0FF0A1A4850F82A400020EB
:102D000004F12404E0602760207C6FEA0801C9B266
:102D100000EA0100207484F81190207CA4F12404BE
:102D200010F0080F0DD194F83A000F4909780843C4
:102D30000D4908700D48805D94F8391008430B491F
:102D400088552946204600F013F8206A20B1204615
:102D5000216A00F026F8E5615046BDE8F08F0000DA
:102D6000745300080C25002051010020520100205E
:102D700010B590F8382001F10B039B5C90F83940B6
:102D8000E443E4B2234001F10B04A35423469B5CCB
:102D900033B98B7A90F83A40E443E4B223408B7223
:102DA00010BDF0B5024612F8384F95785678A2F16A
:102DB00038020B46186819E000F10B073F5D6FEA17
:102DC000060C0CF0FF0C07EA0C0700F10B0C0CF8DA
:102DD000047067463F5D3FB9877A6FEA050C0CF0D7
:102DE000FF0C07EA0C0787721B1D18680028E3D147
:102DF000F0BD000010B51D4A1268D0611B4A126870
:102E000092F8383000F10B02D25C184B1B6893F833
:102E100039301A43154B1B6893F8384000F10B0307
:102E20001A55827A114B1B6893F83A301A43827212
:102E30000E4A126892F838100D4A525C0B4B1B6810
:102E400093F83930DB43DBB21A40094B5A541A4627
:102E5000525C52B9054A126892F83A20D243D2B273
:102E6000044B1B781A40034B1A7010BD6001002000
:102E70005201002051010020014600228A720020E8
:102E800005E0002301F10B021354421CD0B20828C4
:102E9000F7D370472DE9F0415021114800F02EF989
:102EA00000250DE0681C86B20D4800EB051400EB10
:102EB00006170020207067600AA0E060681C85B2D9
:102EC000042DEFD3064800EB05140020207060604D
:102ED00004A0E060024804490860BDE8F0810000F9
:102EE0003C2300203F0000003C01002070B54FF45F
:102EF0000A71134800F002F9002411E0601C85B249
:102F000004EB44000E4901EBC00305EB450001EB67
:102F1000C006002018705E600AA05861601C84B270
:102F2000162CEBD304EB4400054901EBC003002051
:102F30001870586003A0586108460349086070BDC6
:102F4000142100203F0000003801002000200A4921
:102F500008600A4908700A4908700A4908700A4955
:102F600008700A4908600A4908600A4908600A4965
:102F700008600A49087070477C0100204D0100205C
:102F80004E0100205B0100205A0100203401002086
:102F90005C01002048010020440100204C01002079
:102FA00000210A4A1170002004E00021084A11544F
:102FB000411CC8B20828F8D30021064A1170064AFD
:102FC0001170064A1160064A1160704751010020D5
:102FD000520100204F010020500100206801002014
:102FE0006001002070B540F69801194800F086F89D
:102FF0004FF48071174800F081F8002413E0601C42
:10300000C5B204EB440000EBC400114901EBC0035E
:1030100005EB450000EBC50001EBC0065E610EA0AC
:103020001865601CC4B2182CE9D304EB440000EB13
:10303000C400074901EBC0030020586106A01865D1
:1030400000200649086002480549086070BD00007C
:103050000C2600200C2500203F0000006C01002001
:103060006401002000B587B00320002120220A4B14
:10307000CDE90132CDE903104FF6FF703F23064A38
:103080007C3200900548FFF7EBF906AA04A13F2027
:10309000FFF750FA07B000BD8C2400209D330008D4
:1030A00075432F4F532D49492049646C650000003A
:1030B00000B587B00320002140220A4BCDE9013240
:1030C000CDE903104FF6FE703E23064AFC32009015
:1030D0000548FFF7C5F906AA04A13E20FFF72AFA22
:1030E00007B000BD8C230020C533000875432F4F67
:1030F000532D4949205374617400000004E00022FC
:1031000000F8012B4A1E91B20029F8D17047000047
:1031100070B578211148FFF7F1FF00240EE004EBB1
:1031200044000E4901EBC005601C00EB400001EBC0
:10313000C00068600AA06861601C84B2042CEED3F1
:1031400004EB4400054901EBC0050020686004A0C1
:10315000686108460349086070BD0000A42E002085
:103160003F000000740100202DE9F041602110486B
:10317000FFF7C4FF00240DE0601C86B204EB44009E
:103180000B4901EBC00506EB460001EBC0072F60C1
:10319000601C84B2032CEFD304EB4400044901EB20
:1031A000C00500202860084602490860BDE8F0819B
:1031B0001C2F00207801002010B50024FDF758F8DE
:1031C000044613480078F8B912480078E0B900F0D6
:1031D0002DF811481149097850F82100104908606C
:1031E0000E4800780F49097888420DD00C480068D5
:1031F000C06B401C0A490968C8630B480068401C42
:1032000009490860FDF74BF82046FDF735F810BD79
:103210004D0100204E0100200C250020500100200F
:10322000680100204F010020340100200649074AB0
:103230001278885C0649095C034A515C01EBC001C5
:10324000044A1170704700007453000851010020B7
:1032500052010020500100202DE9F84F05460F468D
:1032600090469946DDE90AAB00200090FDF700F892
:10327000009043480468002C7CD004F11C0454F8EE
:10328000080C3F4908600098FCF7F6FF44F81C7CE6
:10329000A576002020766076606144F818BC44F87A
:1032A00010AC44F8148C0C9824F80C0C24F80A9CEC
:1032B0000020E077E810207705F00700E076217F16
:1032C00001208840A077E17E0120884060770020BF
:1032D00020606060E060A0602062A0626062E062E6
:1032E000206328A06063A4F11C044FF0000606E0F0
:1032F000002104F1540040F82610701CC6B2002EC4
:10330000F6D02046FFF7A6F82046FFF709F9FCF7AC
:10331000AFFF00901C4840F825401C4800686061E1
:103320000020A0611948006810B118480068846145
:103330001648046004F13804A0781549097840EA79
:1033400001001349087020781249085C617840EA4E
:10335000010014F838190F4A50540F48007800F152
:1033600001000D4908700098FCF786FF0020BDE8B9
:10337000F88FFFE70098FCF77FFF4220F7E7000097
:10338000640100203F0000000C2500206C0100209B
:1033900051010020520100205B010020002400BFE9
:1033A00000BFFCF765FF044605480068401C04495F
:1033B00008602046FCF760FFFFF7B8F8F1E700006F
:1033C0005C010020002400BF03E04FF4C870FFF749
:1033D000FBF91A4800780028F7D0194800686421E2
:1033E000B0FBF1F0164908600846006828B90020D3
:1033F00014490870FF20FFF781F900BFFCF738FF80
:103400000446114800681149086000200E49086010
:103410002046FCF731FF0D48006809490968B0FBF8
:10342000F1F0C0F1640007490870FFF7C5F800F03B
:103430000FF8C820FFF7C8F9E0E700004C010020B2
:1034400044010020400100205C01002048010020D0
:103450007CB5002514E069462846FFF7B1F806461A
:1034600066B9094850F8254044B1012C06D0D4E98A
:10347000020100EB8100A0640198E064681CC5B201
:103480003F2DE8D97CBD00000C25002012F0010F73
:1034900008D012F0020F05D002E0491E002308C038
:1034A0000029FAD1704700000649097801B9704730
:1034B000002141608160C160C16101614161816140
:1034C00000BFF4E7000000202DE9F04705460C4658
:1034D00017463946206801F08BFE80464146E06879
:1034E00001F09EFBE060D4E9010101F081FE81461C
:1034F0006068A060C4F804800021686801F0C0FC26
:103500001CD02448696801F0F9FB8246E16801F0AB
:1035100037FD05D21F48696801F0F0FBE0600DE05F
:103520000020696801F0EAFB8246E16801F02FFEA5
:1035300004D20020696801F0E1FBE06041462868A0
:1035400001F052FD2061E168686801F04DFD6061A5
:103550004946A86801F048FDA061D4E9040101F0E2
:103560005FFB8246A16901F05BFB06460021304605
:1035700001F006FD02D20020E06108E00549304676
:1035800001F005FE02D20348E06100E0E661BDE81B
:10359000F087000000007A4400B501F08DFA4FF08A
:1035A0007F5018490968086017481649096848603B
:1035B000800714490968886014481549096808603B
:1035C0001448134909684860002011490968886057
:1035D0000E481149096808600E480F49096848609B
:1035E00000200D49096888600C480068FFF75CFFFF
:1035F0000B480068FFF758FF0A480068FFF754FFC0
:1036000000BD000004000020CDCC4C3D0000A040D7
:10361000080000200AD7233C0C00002010000020E6
:10362000140000201800002000B587B00121C80256
:1036300000F0B2F800234FF400421946294800F088
:1036400019FB7021274800F088FB0421254800F071
:1036500096FB8021234800F089FB40F23F20ADF823
:1036600010000020ADF812004FF47A70ADF814008D
:103670000020ADF816008DF8180004A9194800F0D4
:1036800089FB4FF44870184908607020ADF80000BD
:103690000120ADF802000846006880B2ADF80600CF
:1036A0000020ADF808000820ADF80A004001ADF890
:1036B0000C000020ADF80E0008210A4800F044FB81
:1036C0006946084800F0F4FA0121064800F0A8FA1B
:1036D0000121044800F0B3FA0121024800F0BBFACE
:1036E00007B000BD002C0140E8000020014908623D
:1036F0007047000000000E420146B1F57A7F01DDFF
:103700004FF47A71C1F57A7290B2642800DA002021
:10371000B0F57A7F01DD4FF47A70704730B503461B
:103720001446002005E01A5C0A5402B903E0451C67
:10373000E8B2A042F7DB00BF00250D5430BD000009
:1037400001460020034A506820F44040084350607E
:10375000704700000010024029B1064A5269024336
:10376000044B5A6104E0034A52698243014B5A6197
:10377000704700000010024029B1064AD269024396
:10378000044BDA6104E0034AD2698243014BDA61F7
:10379000704700000010024029B1064A92690243B6
:1037A000044B9A6104E0034A92698243014B9A6197
:1037B000704700000010024010B54FF44040FFF782
:1037C000BFFF01210846FFF7C7FF012140F2152086
:1037D000FFF7E2FF10BD000030B5002100220024F9
:1037E00000232D4D6D6805F00C0121B1042905D091
:1037F000082923D105E0294D056022E0274D056009
:103800001FE0254D6D6805F47012234D6D6805F4B9
:103810008034022505EB92421CB9214D55430560C9
:103820000BE01D4D6D6815F4003F03D01C4D554352
:10383000056002E0194D5543056002E0174D056033
:1038400000BF00BF144D6D6805F0F0010909154D6A
:103850006B5C0568DD4045600F4D6D6805F4E06107
:10386000090A104D6B5C4568DD4085600A4D6D6846
:1038700005F46051C90A0B4D6B5C4568DD40C560BD
:10388000054D6D6805F44041890B074D6B5CC568BB
:10389000B5FBF3F5056130BD0010024000127A005F
:1038A00000093D00060100201601002010B5FCF7BC
:1038B0003BFEFEF7CCFAFDF709FBFFF7B5FEFDF77F
:1038C00027FB00F001F810BD00B585B0FDF720FB27
:1038D0000020ADF800004FF48270ADF802004FF404
:1038E0000060ADF804000220ADF806000120ADF83C
:1038F00008004002ADF80A003020ADF80C000020AE
:10390000ADF80E000720ADF810006946044800F03D
:1039100030F80121024800F015F805B000BD0000A4
:103920000030014010B5044600BF0221044800F0F9
:1039300015F80028F9D02146014800F018F810BD0C
:103940000030014021B1028842F04002028004E0D0
:1039500002884FF6BF731A4002807047024600206B
:1039600013890B4201D0012000E0002070478181C3
:10397000704710B50022028802F441520B884C882F
:1039800023438C882343CC8823430C8923434C89CD
:1039900023438C892343CC8923431A430280838B9E
:1039A0004FF2FF74234083830B8A038210BD70475C
:1039B00070B50546002407E0285D00B906E0285DE3
:1039C00000F096FE601CC4B2FF2CF5DB00BF70BD9A
:1039D00010B500F001F810BD002100202E4A126839
:1039E00042F480322C4B1A6000BF2B4A126802F45A
:1039F0000030491C10B9B1F5A06FF6D1264A126803
:103A000012F4003F01D0012000E00020012842D143
:103A1000224A126842F01002204B1A601A461268BD
:103A200022F003021A601A46126842F002021A607B
:103A3000194A5268184B5A601A4652685A601A4618
:103A4000526842F480625A601A46526822F47C122C
:103A50005A601A46526842F4E8125A601A461268CE
:103A600042F080721A6000BF0B4A126812F0007FA9
:103A7000FAD0094A526822F00302074B5A601A46EC
:103A8000526842F002025A6000BF034A526802F0D4
:103A90000C02082AF9D170470010024000200240B1
:103AA00010B5044624B901210448FDF734FB03E0B6
:103AB00001210248FDF72DFB10BD0000000C014064
:103AC00010B5FCF7D5FB044606480078401C0549B4
:103AD00008702046FCF7D0FBFEF7F8FEFEF702FB6D
:103AE00010BD00004D01002010B51348006840F0E3
:103AF00001001149086008464068104908400E4915
:103B00004860084600680E4908400B4908600846AE
:103B1000006820F4802008600846406820F4FE0019
:103B200048604FF41F008860FFF752FF4FF00060BD
:103B30000449086010BD0000001002400000FFF8BA
:103B4000FFFFF6FE08ED00E07047000010B502210F
:103B50000D4800F09BF818B102210B4800F06CF8FA
:103B60000421094800F092F818B10421064800F039
:103B700063F80821044800F089F818B108210248C8
:103B800000F05AF810BD0000002C014010B52021B3
:103B9000014800F051F810BD002C014070470000B2
:103BA00010B501210D4800F071F818B101210B4842
:103BB00000F042F81021094800F068F818B110210F
:103BC000064800F039F80821044800F05FF818B101
:103BD0000821024800F030F810BD00000004004049
:103BE00010B501210D4800F051F818B101210B4822
:103BF00000F022F81021094800F048F818B110210F
:103C0000064800F019F80821044800F03FF818B100
:103C10000821024800F010F810BD00000008004024
:103C200021B1828842F00102828004E082884FF64E
:103C3000FE731A4082807047CA430282704721B1E6
:103C4000028842F00102028004E002884FF6FE730F
:103C50001A400280704731B1B0F8442042F400426B
:103C6000A0F8442005E0B0F84420C2F30E02A0F80A
:103C70004420704730B50C4600210189C9B21D06A9
:103C800042EA154525432943018130BD30B502463E
:103C9000002000230024158A05EA0103958905EA1E
:103CA000010413B10CB1012000E0002030BD000080
:103CB00070B5002400220023058C4FF6FE763540B7
:103CC0000584028C8388048B4FF68F752C40B51EBB
:103CD0002C400D882C43751E2A400D892A434D889F
:103CE0002A43144DA8420BD0134DA84208D0134DBF
:103CF000A84205D0124DA84202D0124DA84213D1BD
:103D00004FF6F7752A404D892A434FF6FB752A4036
:103D10008D882A434FF6FF652B404FF6FF552B4009
:103D20008D892B43CD892B4383800483CD88858661
:103D3000028470BD002C014000340140004001406D
:103D400000440140004801400A460021018B4FF623
:103D5000F77319401143018370470A460021018916
:103D60004FF68F73194011430181704702894FF656
:103D70007F731A40028102890A43028170470289D7
:103D80004FF6F8731A40028102890A430281704794
:103D900081867047002202881D4B98420ED01D4B31
:103DA00098420BD0B0F1804F08D01B4B984205D001
:103DB0001A4B984202D01A4B984204D14FF68F7397
:103DC0001A404B881A43174B984207D0164B98421B
:103DD00004D04FF6FF431A40CB881A4302808B88E9
:103DE00083850B8803850A4B98420BD0094B984278
:103DF00008D00E4B984205D00D4B984202D00D4B87
:103E0000984201D10B7A0386012383827047000018
:103E1000002C014000340140000400400008004034
:103E2000000C004000100040001400400040014021
:103E3000004401400048014000BF4FF4C870FEF745
:103E4000C3FC00BFC820FEF7BFFCFBE700BF00209B
:103E500017490870002400BF15480078844201DA31
:103E600013480478002C18DD1248007840F0100048
:103E7000104908704FF4FA6060430A21B0FBF1F575
:103E80002846FEF7A1FC00240020094908700948D3
:103E9000007820F01000074908700748407E401C59
:103EA000054948764FF4C870FEF78EFCD4E7000051
:103EB00034000020D4000020501F002000BF01204B
:103EC0001D49087000201D4908701D4908701D49D2
:103ED00088804FF47A60FEF777FCFCF791FE00BF14
:103EE0000420FEF771FC1848007840F001001649E4
:103EF000087008460078FDF781FB04462046FDF770
:103F00001FFB124800793028EAD10B4800780128BD
:103F1000E6D100200849087001210D48FDF7A8F8F6
:103F200003200C4988701020C870800208800A485D
:103F3000FDF714F8D4E70000CA000020CB000020F1
:103F40006E000020501F0020D4000020CC00002074
:103F500000043000E4000020000801408EB04FF45F
:103F6000C870FEF731FC00BF00BF0DAA0021344825
:103F70000068FEF779F9FDF769F9324842880823AD
:103F800031493248FCF752FC002412E0A31C2D4DAD
:103F900035F813202E4B03EB440104EBC40303EB71
:103FA00004132C4D05EB43001923FCF73FFC601C68
:103FB000C4B2042CEADB2348408840F2DE31484397
:103FC00040F6FF7190FBF1F0234948800846408895
:103FD0000A2190FBF1F0204988801A4886883046F3
:103FE000FDF764FA1C49C880192269461948323025
:103FF000FDF793F806463046FDF758FA1649088152
:104000001922694613486430FDF787F80546C01742
:1040100005EB5070C01010494881192269460D48BF
:104020009630FDF77AF8142190FBF1F00A49888167
:104030000A480068FEF794F90420FEF7C5FB94E7F0
:104040002400002030200020040100200421002052
:10405000FC0000203C2000206A1F002028000020D7
:1040600000BF4FF4C870FEF7AFFB4FF4C870FEF707
:10407000ABFB00BF0420FEF7A7FBFBE708B500BFC2
:10408000FFF78AFAC820FEF79FFB00BF6A460021AF
:1040900025480068FEF7E8F82448C07C50B923485A
:1040A000807938B922480068FFF7FEF900201F49DF
:1040B000888028E01D48C07C01280AD11B49897AE4
:1040C00001EB8101480000F02FFF194909680860E1
:1040D00006E01649887900F03FFF15490968086035
:1040E0001449488800F038FF044622461048016809
:1040F00011480068FFF7E8F90D490968C86900F040
:10410000F3FE0A49888009498888FFF7F5FA0B49C8
:1041100008600846006881B20948FFF739FE0420AC
:10412000FEF752FBB2E7000028000020501F0020DD
:10413000100000206A1F002004000020E80000207A
:10414000002C014000BF002021490870FDF702F853
:10415000082020498872642008810020888001207E
:104160004875C87401221C490020FCF7C3FD0122D8
:104170001949891C0020FCF7BDFD08221649891F3A
:104180000020FCF7B7FDFFF791FB02211348FCF775
:10419000C0FFFDF7B9F81248007840F0010010495F
:1041A00008704FF47A70FEF70FFB02210B48FCF702
:1041B000B2FF0020FFF774FC00BF0649487EFDF700
:1041C000F9FBFDF78DFD2820FEF7FEFAF5E700006C
:1041D00036000020501F0020F3000020000C01409A
:1041E000D400002000BF4FF4C870FEF7EDFA00BF06
:1041F000FCF706FD4FF4FA60FEF7E6FAF8E7000078
:1042000000BF00203D4908704FF47A70FEF7DCFAD9
:10421000002415E04FF47A70FEF7D6FA384800789B
:1042200040F03F00364908704FF47A70FEF7CCFA40
:104230003348007800F0C00031490870601CC4B2F7
:10424000032CE7DB00BF2D480078002840D0012870
:1042500028D002283BD12A48007840F02000284985
:104260000870FA20FEF7B0FA2548007820F0200008
:10427000234908704FF4FA70FEF7A6FA2048007838
:1042800040F020001E490870FA20FEF79DFA1C48F5
:10429000007820F020001A49087040F6B830FEF788
:1042A00093FA2AE01648007840F02000144908707C
:1042B0004FF4FA70FEF788FA1148007820F02000D9
:1042C0000F49087040F6AC50FEF77EFA15E000BFCB
:1042D0000B48007840F02000094908704FF4FA605C
:1042E000FEF772FA0648007820F0200004490870B2
:1042F0004FF4FA60FEF768FA00BFA4E7350000202B
:10430000D400002000BF4FF4C870FEF75DFA00BF74
:104310000A20FEF759FA0A20FEF756FA024800680A
:10432000FEF71EF8F4E70000240000201CB500BFD3
:10433000384FDFF8E480DFF8E490DFF8E4A04FF4D2
:104340007A750A26C820FEF73FFA00BF002412E063
:1043500001A830F81400002807DD01A830F8140087
:10436000401E01A921F8140003E00021204600F0BE
:10437000D3FB601CC4B2022CEADB002D02DD681EF8
:1043800085B214E04FF47A7500240EE037F814007B
:1043900001A921F8140018F80400002803DD012108
:1043A000204600F0B9FB601CC4B2022CEEDB0024F6
:1043B00010E03DF81400002806DD3DF81400401E12
:1043C00080B22DF8140003E00021204600F0D4FB59
:1043D000601CC4B2022CECDB002E02DD701E86B223
:1043E00014E000F0E9F90A2600240DE039F8140081
:1043F0002DF814001AF80400002803DD01212046DE
:1044000000F0BAFB601CC4B2022CEFDB0220FEF706
:10441000DBF99BE7380000203C0000201C00002056
:104420002000002010B500F001F810BD38B5FBF7F2
:1044300075FF054624480078401C2349087028462B
:10444000FBF770FF40F22551204800F078F870B17A
:104450001E4800F02FF9C4B2234610221C491D4803
:10446000FBF782FF40F22551184800F04DF840F26A
:104470002771164800F063F8B8B11748008848B9AA
:10448000002016490870002240F227710F4800F002
:1044900080F80AE06B46182211490F48FBF77EFFAF
:1044A0009DF80010094800F00AF940F2266107481B
:1044B00000F045F820B140F22661044800F024F8ED
:1044C000FDF710FE38BD00004D010020003801400E
:1044D000781F0020D8000020DE000020D600002039
:1044E0008C1F002010B5012240F22771044800F013
:1044F00050F8012240F22661014800F04AF810BD50
:10450000003801407047704710B500220023A1F524
:1045100010646A3C00D100BF0A1201249440A3B287
:10452000DC43048010BD21B1828942F400528281B3
:1045300004E082894DF6FF731A408281704770B59E
:1045400002460024002300250020A1F510666A3EE3
:1045500000D100BFC1F3421501F01F03012606FA86
:1045600003F3012D02D19689334006E0022D02D1DA
:10457000168A334001E0968A33400C12012606FA6F
:1045800004F41688344013B10CB1012000E000207F
:1045900070BDF0B503460024002600250020A1F5DB
:1045A00010676A3F00D100BF1846C1F3421401F002
:1045B0001F06012707FA06F5012C01D10C3004E093
:1045C000022C01D1103000E014301AB107682F43DB
:1045D000076002E00768AF430760F0BD2DE9F047D0
:1045E00086B005460E460024A24600BFA14600271D
:1045F000B08900B100BF2F462C8A4CF6FF700440F2
:10460000F08804432C82AC894EF6F3100440B08845
:1046100031890843718908430443AC81AC8A4FF661
:10462000FF400440B0890443AC8201A8FFF7D4F8EE
:104630001F48874202D1DDF810A001E0DDF80CA090
:10464000A88910F4004F08D00AEBCA0000EB0A104A
:1046500031684900B0FBF1F807E00AEBCA0000EB53
:104660000A1031688900B0FBF1F86420B8FBF0F063
:1046700004012009642101FB1089A88910F4004F6E
:1046800008D0322000EBC900B0FBF1F000F00700C9
:10469000044308E0322000EB09106421B0FBF1F084
:1046A00000F00F0004432C8106B0BDE8F087000045
:1046B0000038014001468888C0F308007047C1F304
:1046C000080282807047000010B50020054908707C
:1046D00018210548FBF733FE10210448FBF72FFE95
:1046E00010BD0000D6000020DE000020D800002011
:1046F000F8B5054600261B48008803280DDD0A246E
:1047000003E0022000F04AF8641E1648408815496C
:104710008988884201D1002CF3D104B901262B46A7
:10472000182211490F48FBF71FFE10480078A0B966
:104730006B4618220C490B48FBF730FE68B101208C
:104740000A4908709DF800100948FFF7B8FF0122D8
:1047500040F227710648FFF71CFF0EB90120F8BD93
:104760000020FCE7DE0000208C1F0020D600002087
:104770000038014000BFFEE738B504466A46002114
:1047800005480068FDF770FD2046FFF711F9024863
:104790000068FDF7E5FD38BD30000020002108E08D
:1047A000002201E0531C9AB2B2F5167FFADB4B1CD3
:1047B00099B28142F4DB704710B51D480078401C67
:1047C0001B4908701B49088900F0C6FB1A49096893
:1047D00008601A49C88800F0BFFB04462246164804
:1047E000016817480068FEF76FFE13490968C86939
:1047F00000F07AFB134908800E49088900F0ACFBF1
:104800001149096808600D49088900F0A5FB0446B4
:1048100022460D4801680D480068FEF755FE0A491A
:104820000968C86900F060FB0649488010BD0000B7
:1048300022000020501F0020140000206A1F0020CA
:104840000800002038000020180000200C00002084
:10485000F0B502460B462A250024002629E0A54291
:1048600002DC00200146F0BD281B00EBD07704EBF2
:104870006707B9B28D4201DC0846F4E78C4201DBE0
:104880000846F0E733F81100904201D10846EAE704
:1048900033F81100904209DA481C33F810009042B6
:1048A00001DD0846DFE7481C84B200E00D46701CBD
:1048B00086B22A2ED3DB0846D5E700002A480078C6
:1048C00007284ED2DFE800F0042627054A4B4C00AB
:1048D00000BF26488078012808D12548807A6328BF
:1048E00004DA2348807A401C214988721F484078A6
:1048F000FA2807DA1D4880781E280ADD00201B49A7
:10490000887006E0194880780F2802DD00201749DA
:10491000887027E026E01548807801280AD11448DD
:10492000008940F2E731884204DA11480089401CCE
:104930000F4908810D484078FA2807DA0B4880783B
:104940001E280ADD00200949887006E007488078A3
:104950000A2802DD00200549887003E002E001E03A
:1049600000E000BF00BF70476E000020CC000020B8
:10497000501F00202948007807284CD2DFE800F0BB
:104980000426270548494A0000BF254880780128A9
:1049900008D12448807A002804DD2248807A401E0D
:1049A000204988721E484078FA2807DA1C48807827
:1049B0001E280ADD00201A49887006E01848807811
:1049C0000F2802DD00201649887025E024E01448F5
:1049D0008078012808D113480089002804DD114897
:1049E0000089401E0F4908810D484078FA2807DAEF
:1049F0000B4880781E280ADD00200949887006E0EF
:104A0000074880780A2802DD00200549887003E005
:104A100002E001E000E000BF00BF70476E00002030
:104A2000CC000020501F0020204800791F49C97881
:104A3000884239D01E480078072830D2DFE800F0DD
:104A400004080C1019222B000120194908702AE0D3
:104A500002201749087026E003201549087022E05B
:104A60000020134908701348007808B1042008702A
:104A700019E000200E4908700E48007808B10520A2
:104A8000087010E000200A4908700A48007808B150
:104A90000620087007E000200549087003E00020A8
:104AA0000349087000BF00BF70470000CC00002021
:104AB0006E000020CB0000200A480B4908600B481C
:104AC0000B4908600B480C4908600C480C49086009
:104AD0000C480D4908600D480D49086001200D493A
:104AE000087070470C030020040000201803002009
:104AF00008000020240300200C00002030030020C8
:104B0000100000205003002014000020700300203B
:104B1000180000200000002070B505460C46082D46
:104B200025D2DFE805F004111E1F202122232CB11D
:104B30004FF400610F48FCF7EEFA04E04FF4006117
:104B40000C48FCF7E6FA12E02CB14FF4004109489A
:104B5000FCF7E1FA04E04FF400410648FCF7D9FA0B
:104B600005E004E003E002E001E000E000BF00BF78
:104B700070BD00000008014070B504460D46082CC9
:104B800019D2DFE804F004111213141516172DB111
:104B90004FF480410948FCF7BEFA04E04FF480412D
:104BA0000648FCF7B6FA06E005E004E003E002E0A0
:104BB00001E000E000BF00BF70BD00000008014040
:104BC00000B587B09DF818000690FCF78FFCFBF746
:104BD000A1FBFDF763FA032000215E220A4BCDE919
:104BE0000310CDE9013200900346084A0848FDF75A
:104BF00037FC069006AA07A10320FDF79BFCFDF7F2
:104C0000DFFB002007B000BD940100200803002056
:104C1000790B00085374617274205461736B000047
:104C200090EA010F48BF81F0004100F1E882421A8A
:104C30003CBF801A89184FEAD0524FF07F4C1CEAD3
:104C4000410FA2EBD15318BF9CEA026F00F03B80EA
:104C50004FF0004C4CEA00204CEA012121FA03FC01
:104C600010EB0C0C1ED202F1FF325FEA1C2040EB6D
:104C7000C25038BF70471CF07F0F4FEA400C18BF7E
:104C8000BCF17F4F38BF7047C3F12003994008BF84
:104C900020F00100BCF17F4F38BF7047A0F1C04049
:104CA00000F070BA4FEA3C00000A40EBC25028BF47
:104CB0001CF0FF0F4FEA400CE6D018BFBCF17F4F4D
:104CC00038BF7047EAE79CEA026F05D010EA5C0F34
:104CD00008BF00F00040704710B500F006FA00BFB2
:104CE00064FBBE3E401058BFC0F14040491058BF61
:104CF000C1F140418142EFF3008070474FF47F0CD7
:104D00001CEAD0121EBF1CEAD11392EA0C0F93EAE0
:104D10000C0F00F0858090EA010F48BF42F48072CA
:104D200040F4000C41F400002CF07F4120F07F4063
:104D300000B58142A2EB03020FF2081CACEB504E0F
:104D4000C0F100009EF800E04FEA4E0E00FB0EFCA2
:104D500038BF49004FEA2C1C02F5FA020CFB0EF397
:104D60004FEACE1E4FEA112C4FEAC1210EEB635ED3
:104D700042EB22420EFB0CFC4FEA1C5300FB0311DA
:104D80004FEA112C4FEA01310EFB0CFC4FEADC4CD0
:104D900000FB0C11C14228BF09184CEB03335DF82E
:104DA00004EB10EB410143EBC250B2F57C0F38BF6E
:104DB000704729D512F0F00F1CBF00F1C04000F081
:104DC00000407047008182838485868788898B8C28
:104DD0008D8E8F919293959697999A9C9D9FA0A264
:104DE000A3A5A7A8AAACAEB0B2B3B5B7B9BCBEC0B4
:104DF000C2C5C7C9CCCED1D4D7D9DCDFE2E6E9EC55
:104E0000F0F3F7FAFE0000004FEA400C0CF1807C52
:104E1000BCF17E4F28BF7047B0F1C04000F0B2B97E
:104E200090EA010F0CEAD11348BF42F48072624548
:104E300038BF634507D213F47F0F16D080EA010014
:104E400000F00040704710B500F04FF9097EFC3EBD
:104E500000F005B880EA010000F00040704780EAE9
:104E6000010000F0004000F08DB912F47F0F04BF84
:104E70000248704780EA010000F084B90000C07F5A
:104E800050EA010C00F113801CF5000F58BFBCF56F
:104E9000000F01D48842704707D710F5000F58BFA4
:104EA00011F5000F15D488427047894270471CF5F0
:104EB000000F04D5BCF5000FF7D5814270474FF0C5
:104EC000807C1CEB400F38BF1CEB410F01D28142AC
:104ED000704710B500F009F9922449004FF00050D6
:104EE0004FF08051FFF7FEBEC10DD1F19E0206DBEF
:104EF0004FEA002343F0004323FA02F070470042D8
:104F000007D54FEA4001B1F1FE4F02D24FF0000049
:104F1000704710B500F0E9F84992248000207047EE
:104F20006FEA20007047000010F0004148BF404287
:104F3000B0FA80F310FA03F2C3F19D030BD051EAEB
:104F4000C35101EB1220530638BF704700F1010036
:104F500008BF20F001007047B0FA80F310FA03F2A6
:104F6000C3F19D030AD0D90501EB1220530638BFC7
:104F7000704700F1010008BF20F0010070470000F9
:104F800050EA010C00F113801CF5000F58BFBCF56E
:104F9000000F01D48842704707D710F5000F58BFA3
:104FA00011F5000F15D488427047894270471CF5EF
:104FB000000F04D5BCF5000FF7D5814270474FF0C4
:104FC000807C1CEB400F38BF1CEB410F01D28142AB
:104FD000704710B500F089F8922449004FF0005056
:104FE0004FF08051FFF77EBE4FF47F0C1CEAD012C9
:104FF0001EBF1CEAD11392EA0C0F93EA0C0F00F0CB
:10500000478090EA010F48BF42F480724FF0004C95
:105010004CEA00204CEA012102EB0302A0FB011341
:10502000A2F50002002918BF43F001035B0028BF6E
:105030004FEA330342EB22425FEA132C4CEBC2509F
:105040002EBFBCEB436FB2F57C0F70474FEA036C89
:10505000BCF1004F08BF20F00100B2F57C0F38BF53
:1050600070470BD582F0FF0212F5803FC8BF704732
:1050700000F1C040D8BF00F00040704700F5000CC0
:105080005FEA4C0C48BF7047B0F1C04000F07AB8FE
:1050900090EA010F0CEAD11348BF42F480726245D6
:1050A00038BF634504D280EA010000F00040704739
:1050B00010B500F01AF800BF8900013E00F007B8F3
:1050C00000F009B85FEA410C5FEA1C6C08D080EA86
:1050D000010000F057B85FEA400C5FEA1C6CF6D1A3
:1050E0004FF00040A0F5800070470EF1020E2EF048
:1050F000030E5EF8044B244204D44FEA4102B2F19D
:105100007F4F11D84FEA4003B3F17F4F0CD80ED137
:105110004FEAD07CB2F17F4F0CEB4C0C0CF1020C3F
:1051200008BF4CEBD17C04E04FF0080C01E04FEAE3
:10513000D17C0CEB4C0324FA03F404F00704B4F123
:10514000040C06D20EEB840CBDE810404CF0010CB0
:105150006047DFE80CF0070802024FF00040A0F5BE
:10516000800010BD0846420018BFD2F1807288BF8F
:1051700000F0004010BD10B5FBF7C0F94FF0000182
:10518000016010BDFF2141EAD050C005704751EACF
:10519000000C00F113801CF5000F58BFBCF5000F88
:1051A00001D48142704707D711F5000F58BF10F5A1
:1051B000000F15D481427047894270471CF5000FDB
:1051C00004D5BCF5000FF7D5884270474FF0807CBE
:1051D0001CEB410F38BF1CEB400F01D288427047D7
:1051E00080EA010081EA000180EA0100FFF7F1BED8
:1051F00090EA010F48BF81F000413FF518AD421A17
:1052000004D882F00042A0EB020011444FEAD052D1
:105210004FF07F4C1CEA410FA2EBD15318BF9CEA20
:10522000026F4AD04FF0004C4CEA00204CEA0121BA
:1052300021FA03FCB0EB0C0C0FD412F0FE0F36D0A9
:105240005FEA4C001DD5001240EBC25038BF7047DA
:105250001CF03F0F18BF70470BE0A2F101025FEA9C
:105260001C2040EBC25038BF70471CF07F0F18BFA6
:105270007047C3F12003994014BF401E20F0010085
:10528000704780084FEA122308BF7047B0FA80FCCD
:10529000A2EB0C02CCF1280C60FA0CF093EA122F6E
:1052A00004BF00EBC25070474FEAC3707047130A47
:1052B0005FEADC1008BF7047F6E79CEA026F04D093
:1052C00010EA5C0F08BF0020704710B5FFF70DFF14
:1052D00040DFF63E81F00040704700004A616E46B4
:1052E00065624D61724170724D61794A756E4A75A1
:1052F0006C4175675365704F63744E6F7644656398
:105300000100000078563412010017000100180057
:105310002802010001001000140002000500010035
:105320003F000100010005000100180078000100A5
:10533000040001000400180008000100040001003E
:1053400001000100200001001900010001004000DF
:1053500001000100010040005800D00701002301B6
:1053600001001000010008000A0028008002080067
:105370004000821200000100020001000300010051
:10538000020001000400010002000100030001000E
:1053900002000100050001000200010003000100FD
:1053A00002000100040001000200010003000100EE
:1053B00002000100060001000200010003000100DC
:1053C00002000100040001000200010003000100CE
:1053D00002000100050001000200010003000100BD
:1053E00002000100040001000200010003000100AE
:1053F000020001000700010002000100030001009B
:10540000020001000400010002000100030001008D
:10541000020001000500010002000100030001007C
:10542000020001000400010002000100030001006D
:10543000020001000600010002000100030001005B
:10544000020001000400010002000100030001004D
:10545000020001000500010002000100030001003C
:10546000020001000400010002000100030001002D
:105470000200010094540008000000209401000084
:105480006C0100084C550008940100200C38000005
:10549000C8010008011C1A0A02031C01011022AFF6
:1054A000066D4FC6CBEB0EEFCFF560B6F263D3D7E8
:1054B00070F7F3EEE3A967E9E8080401CC638C23F5
:1054C000300E77C795E6971710208033C631C41287
:1054D0001D12261231123E124F1264127D129B12BF
:1054E000BF12EA100D1B0155019801E30139029723
:1054F00002101A037203ED036F04F80487051906FE
:10550000AE064307D7076808F5087D09101E0A6430
:105510000A0F0B6E0BC40B1F0C800CE70C550DCB48
:105520000D490ED10E620FFC0FFE0F022210AAFFD2
:105530000101112D010203040430090607080902C4
:0C554000040608ACA24A041E291A0164EB
:0400000508000131BD
:00000001FF
